{
  "contractName": "ConsumerData",
  "abi": [
    {
      "constant": true,
      "inputs": [
        {
          "name": "",
          "type": "uint256"
        }
      ],
      "name": "consumers",
      "outputs": [
        {
          "name": "aId",
          "type": "uint256"
        },
        {
          "name": "name",
          "type": "string"
        },
        {
          "name": "age",
          "type": "uint256"
        },
        {
          "name": "vaccinated",
          "type": "bool"
        },
        {
          "name": "vacId",
          "type": "uint256"
        },
        {
          "name": "password",
          "type": "string"
        }
      ],
      "payable": false,
      "stateMutability": "view",
      "type": "function",
      "signature": "0x4651ed3d"
    },
    {
      "constant": true,
      "inputs": [],
      "name": "consCount",
      "outputs": [
        {
          "name": "",
          "type": "uint256"
        }
      ],
      "payable": false,
      "stateMutability": "view",
      "type": "function",
      "signature": "0x72706cf1"
    },
    {
      "inputs": [],
      "payable": false,
      "stateMutability": "nonpayable",
      "type": "constructor",
      "signature": "constructor"
    },
    {
      "anonymous": false,
      "inputs": [
        {
          "indexed": false,
          "name": "success",
          "type": "uint256"
        },
        {
          "indexed": false,
          "name": "aId",
          "type": "uint256"
        },
        {
          "indexed": false,
          "name": "name",
          "type": "string"
        },
        {
          "indexed": false,
          "name": "age",
          "type": "uint256"
        },
        {
          "indexed": false,
          "name": "vaccinated",
          "type": "bool"
        },
        {
          "indexed": false,
          "name": "vacId",
          "type": "uint256"
        }
      ],
      "name": "ConsumerAdded",
      "type": "event",
      "signature": "0xf394887fcc1330060fa70fe2bc562698db82b4fbb7860fb1ffcc2544721562ee"
    },
    {
      "anonymous": false,
      "inputs": [
        {
          "indexed": false,
          "name": "success",
          "type": "uint256"
        },
        {
          "indexed": false,
          "name": "aId",
          "type": "uint256"
        },
        {
          "indexed": false,
          "name": "name",
          "type": "string"
        },
        {
          "indexed": false,
          "name": "age",
          "type": "uint256"
        },
        {
          "indexed": false,
          "name": "vaccinated",
          "type": "bool"
        },
        {
          "indexed": false,
          "name": "vacId",
          "type": "uint256"
        }
      ],
      "name": "ThrowConsumerData",
      "type": "event",
      "signature": "0x63727b4100df06971a0421b467545388a29c25775663eac59404d59eb077494d"
    },
    {
      "anonymous": false,
      "inputs": [
        {
          "indexed": false,
          "name": "success",
          "type": "uint256"
        },
        {
          "indexed": false,
          "name": "aId",
          "type": "uint256"
        },
        {
          "indexed": false,
          "name": "vacId",
          "type": "uint256"
        },
        {
          "indexed": false,
          "name": "vaccinated",
          "type": "bool"
        }
      ],
      "name": "ConsumerVaccinated",
      "type": "event",
      "signature": "0xf94374ce758f8f3d7a97daefa59d4c1fa52c9a3fbf13690774b762c38bea65a7"
    },
    {
      "constant": false,
      "inputs": [
        {
          "name": "_aId",
          "type": "uint256"
        },
        {
          "name": "_name",
          "type": "string"
        },
        {
          "name": "_age",
          "type": "uint256"
        },
        {
          "name": "_password",
          "type": "string"
        }
      ],
      "name": "AddConsumer",
      "outputs": [],
      "payable": false,
      "stateMutability": "nonpayable",
      "type": "function",
      "signature": "0x6c76a686"
    },
    {
      "constant": false,
      "inputs": [
        {
          "name": "_aId",
          "type": "uint256"
        },
        {
          "name": "_password",
          "type": "string"
        }
      ],
      "name": "GetConsumerData",
      "outputs": [],
      "payable": false,
      "stateMutability": "nonpayable",
      "type": "function",
      "signature": "0xd6daf2d5"
    },
    {
      "constant": false,
      "inputs": [
        {
          "name": "_aId",
          "type": "uint256"
        },
        {
          "name": "_vacId",
          "type": "uint256"
        }
      ],
      "name": "toggleVaccinated",
      "outputs": [],
      "payable": false,
      "stateMutability": "nonpayable",
      "type": "function",
      "signature": "0x6e420646"
    }
  ],
  "bytecode": "0x6080604052600080553480156200001557600080fd5b506200007a60006040805190810160405280600781526020017f67656e65736973000000000000000000000000000000000000000000000000008152506000602060405190810160405280600081525062000080640100000000026401000000009004565b6200032b565b600160005b6000548111620000b957600081815260016020526040902054861415620000b05760009150620000b9565b60010162000085565b50801562000232576000805460019081018083556040805160c08101825289815260208082018a81528284018a9052606083018790526080830187905260a083018990529386528481529190942084518155915180519293620001259390850192919091019062000286565b5060408201516002820155606082015160038201805460ff19169115159190911790556080820151600482015560a082015180516200016f91600584019160209091019062000286565b50905050600080516020620011318339815191526001868686600080604051808781526020018681526020018060200185815260200184151515158152602001838152602001828103825286818151815260200191508051906020019080838360005b83811015620001ec578181015183820152602001620001d2565b50505050905090810190601f1680156200021a5780820380516001836020036101000a031916815260200191505b5097505050505050505060405180910390a16200027f565b60408051600080825260208201819052606082018190526080820181905260a0820181905260c0828401819052820152905160008051602062001131833981519152918190036101000190a15b5050505050565b828054600181600116156101000203166002900490600052602060002090601f016020900481019282601f10620002c957805160ff1916838001178555620002f9565b82800160010185558215620002f9579182015b82811115620002f9578251825591602001919060010190620002dc565b50620003079291506200030b565b5090565b6200032891905b8082111562000307576000815560010162000312565b90565b610df6806200033b6000396000f3fe60806040526004361061006c5763ffffffff7c01000000000000000000000000000000000000000000000000000000006000350416634651ed3d81146100715780636c76a686146101995780636e420646146102e457806372706cf114610314578063d6daf2d51461033b575b600080fd5b34801561007d57600080fd5b5061009b6004803603602081101561009457600080fd5b50356103f5565b60405180878152602001806020018681526020018515151515815260200184815260200180602001838103835288818151815260200191508051906020019080838360005b838110156100f85781810151838201526020016100e0565b50505050905090810190601f1680156101255780820380516001836020036101000a031916815260200191505b50838103825284518152845160209182019186019080838360005b83811015610158578181015183820152602001610140565b50505050905090810190601f1680156101855780820380516001836020036101000a031916815260200191505b509850505050505050505060405180910390f35b3480156101a557600080fd5b506102e2600480360360808110156101bc57600080fd5b813591908101906040810160208201356401000000008111156101de57600080fd5b8201836020820111156101f057600080fd5b8035906020019184600183028401116401000000008311171561021257600080fd5b91908080601f0160208091040260200160405190810160405280939291908181526020018383808284376000920191909152509295843595909490935060408101925060200135905064010000000081111561026d57600080fd5b82018360208201111561027f57600080fd5b803590602001918460018302840111640100000000831117156102a157600080fd5b91908080601f016020809104026020016040519081016040528093929190818152602001838380828437600092019190915250929550610543945050505050565b005b3480156102f057600080fd5b506102e26004803603604081101561030757600080fd5b508035906020013561075e565b34801561032057600080fd5b50610329610a46565b60408051918252519081900360200190f35b34801561034757600080fd5b506102e26004803603604081101561035e57600080fd5b8135919081019060408101602082013564010000000081111561038057600080fd5b82018360208201111561039257600080fd5b803590602001918460018302840111640100000000831117156103b457600080fd5b91908080601f016020809104026020016040519081016040528093929190818152602001838380828437600092019190915250929550610a4c945050505050565b600160208181526000928352604092839020805481840180548651600296821615610100026000190190911695909504601f810185900485028601850190965285855290949193929091908301828280156104915780601f1061046657610100808354040283529160200191610491565b820191906000526020600020905b81548152906001019060200180831161047457829003601f168201915b50505050600283810154600385015460048601546005870180546040805160206101006001851615026000190190931697909704601f81018390048302880183019091528087529798949760ff909416965091949290918301828280156105395780601f1061050e57610100808354040283529160200191610539565b820191906000526020600020905b81548152906001019060200180831161051c57829003601f168201915b5050505050905086565b600160005b6000548111610578576000818152600160205260409020548614156105705760009150610578565b600101610548565b5080156106f9576000805460019081018083556040805160c08101825289815260208082018a81528284018a9052606083018790526080830187905260a0830189905293865284815291909420845181559151805192936105e193908501929190910190610cf6565b5060408201516002820155606082015160038201805460ff19169115159190911790556080820151600482015560a08201518051610629916005840191602090910190610cf6565b509050507ff394887fcc1330060fa70fe2bc562698db82b4fbb7860fb1ffcc2544721562ee6001868686600080604051808781526020018681526020018060200185815260200184151515158152602001838152602001828103825286818151815260200191508051906020019080838360005b838110156106b557818101518382015260200161069d565b50505050905090810190601f1680156106e25780820380516001836020036101000a031916815260200191505b5097505050505050505060405180910390a1610757565b60408051600080825260208201819052606082018190526080820181905260a0820181905260c082840181905282015290517ff394887fcc1330060fa70fe2bc562698db82b4fbb7860fb1ffcc2544721562ee918190036101000190a15b5050505050565b60008060015b60005481116107975760008181526001602052604090205485141561078f5760019250809150610797565b600101610764565b5081156109f8576107a6610d74565b600082815260016020818152604092839020835160c0810185528154815281840180548651600296821615610100026000190190911695909504601f8101859004850286018501909652858552909491938584019390929083018282801561084f5780601f106108245761010080835404028352916020019161084f565b820191906000526020600020905b81548152906001019060200180831161083257829003601f168201915b5050509183525050600282810154602080840191909152600384015460ff1615156040808501919091526004850154606085015260058501805482516101006001831615026000190190911694909404601f81018490048402850184019092528184526080909401939183018282801561090a5780601f106108df5761010080835404028352916020019161090a565b820191906000526020600020905b8154815290600101906020018083116108ed57829003601f168201915b50505091909252505060016060830181905260808301879052600085815260208281526040909120845181558185015180519596508695919450610952938501920190610cf6565b5060408201516002820155606082015160038201805460ff19169115159190911790556080820151600482015560a0820151805161099a916005840191602090910190610cf6565b505081516080808401516060808601516040805160018152602081019690965285810193909352151590840152517ff94374ce758f8f3d7a97daefa59d4c1fa52c9a3fbf13690774b762c38bea65a79350918290030190a150610a40565b60408051600080825260208201819052818301819052606082015290517ff94374ce758f8f3d7a97daefa59d4c1fa52c9a3fbf13690774b762c38bea65a79181900360800190a15b50505050565b60005481565b6000805b6000548111610b865760008181526001602052604090205484148015610b705750600160008281526020019081526020016000206005016040516020018082805460018160011615610100020316600290048015610ae55780601f10610ac3576101008083540402835291820191610ae5565b820191906000526020600020905b815481529060010190602001808311610ad1575b505091505060405160208183030381529060405280519060200120836040516020018082805190602001908083835b60208310610b335780518252601f199092019160209182019101610b14565b6001836020036101000a03801982511681845116808217855250505050505090500191505060405160208183030381529060405280519060200120145b15610b7e5760019150610b86565b600101610a50565b8115610c935760008181526001602081815260409283902080546002808301546003840154600485015488518881529687018590526060870183905260ff909116801515608088015260a0870182905260c09887018981529588018054600019818b1615610100020116949094049887018990527f63727b4100df06971a0421b467545388a29c25775663eac59404d59eb077494d98949693959294909391929060e083019087908015610c7b5780601f10610c5057610100808354040283529160200191610c7b565b820191906000526020600020905b815481529060010190602001808311610c5e57829003601f168201915b505097505050505050505060405180910390a1610a40565b60408051600080825260208201819052606082018190526080820181905260a0820181905260c082840181905282015290517f63727b4100df06971a0421b467545388a29c25775663eac59404d59eb077494d918190036101000190a150505050565b828054600181600116156101000203166002900490600052602060002090601f016020900481019282601f10610d3757805160ff1916838001178555610d64565b82800160010185558215610d64579182015b82811115610d64578251825591602001919060010190610d49565b50610d70929150610dad565b5090565b60c06040519081016040528060008152602001606081526020016000815260200160001515815260200160008152602001606081525090565b610dc791905b80821115610d705760008155600101610db3565b9056fea165627a7a72305820b6ee5eae38ce4392ea49f60db475c46bef5ae708ded4a0c260fa864e02eae7a70029f394887fcc1330060fa70fe2bc562698db82b4fbb7860fb1ffcc2544721562ee",
  "source": "pragma solidity ^0.5.0;\r\n\r\ncontract ConsumerData {\r\n    uint public consCount = 0;\r\n\r\n    struct Consumer {\r\n        uint aId;\r\n        string name;\r\n        uint age;\r\n        bool vaccinated;\r\n        uint vacId;\r\n        string password;\r\n    }\r\n\r\n    mapping(uint => Consumer) public consumers;\r\n\r\n    constructor() public {\r\n        AddConsumer(0, 'genesis', 0, '');\r\n    }\r\n\r\n    event ConsumerAdded(\r\n        uint success,\r\n        uint aId,\r\n        string name,\r\n        uint age,\r\n        bool vaccinated,\r\n        uint vacId\r\n    );\r\n\r\n    function AddConsumer(uint _aId, string memory _name, uint _age, string memory _password) public {\r\n        bool proceed = true;\r\n        for(uint i = 0; i <= consCount; i++) {\r\n            if(_aId == consumers[i].aId) {\r\n                proceed = false;\r\n                break;\r\n            }\r\n        }\r\n        if(proceed) {\r\n            consCount ++;\r\n            consumers[consCount] = Consumer(_aId, _name, _age, false, 0, _password);\r\n            emit ConsumerAdded(1, _aId, _name, _age, false, 0);\r\n        }\r\n        else\r\n            emit ConsumerAdded(0, 0, '', 0, false, 0);\r\n    }\r\n\r\n    event ThrowConsumerData(\r\n        uint success,\r\n        uint aId,\r\n        string name,\r\n        uint age,\r\n        bool vaccinated,\r\n        uint vacId\r\n    );\r\n\r\n    function GetConsumerData(uint _aId, string memory _password) public {\r\n        bool proceed = false;\r\n        uint i = 0;\r\n        for(i = 0; i <= consCount; i++) {\r\n            if(_aId == consumers[i].aId && keccak256(abi.encodePacked(_password)) == keccak256(abi.encodePacked(consumers[i].password))) {\r\n                proceed = true;\r\n                break;\r\n            }\r\n        }\r\n\r\n        if(proceed)\r\n            emit ThrowConsumerData(1, consumers[i].aId, consumers[i].name, consumers[i].age, consumers[i].vaccinated, consumers[i].vacId);\r\n        else\r\n            emit ThrowConsumerData(0, 0, '', 0, false, 0);\r\n    }\r\n\r\n    event ConsumerVaccinated(\r\n        uint success,\r\n        uint aId,\r\n        uint vacId,\r\n        bool vaccinated\r\n    );\r\n\r\n    function toggleVaccinated(uint _aId, uint _vacId) public {\r\n        bool present = false;\r\n        uint _id = 0;\r\n        for(uint i = 1; i <= consCount; i++) {\r\n            if(_aId == consumers[i].aId){\r\n                present = true;\r\n                _id = i;\r\n                break;\r\n            }\r\n        }\r\n        if(present) {\r\n            Consumer memory _consumer = consumers[_id];\r\n            _consumer.vaccinated = true;\r\n            _consumer.vacId = _vacId;\r\n            consumers[_id] = _consumer;\r\n            emit ConsumerVaccinated(1, _consumer.aId, _consumer.vacId, _consumer.vaccinated);\r\n        }\r\n        else\r\n            emit ConsumerVaccinated(0, 0, 0, false);\r\n    }\r\n}",
  "sourcePath": "C:/Users/kshit/Desktop/Vaccine-monitoring-system/contracts/ConsumerData.sol",
  "compiler": {
    "name": "solc",
    "version": "0.5.0+commit.1d4f565a.Emscripten.clang"
  },
  "schemaVersion": "3.0.1",
  "updatedAt": "2021-01-20T09:50:14.700Z",
  "devdoc": {
    "methods": {}
  },
  "userdoc": {
    "methods": {}
  }
}