{
  "contractName": "ConsumerData",
  "abi": [
    {
      "constant": true,
      "inputs": [
        {
          "name": "",
          "type": "uint256"
        }
      ],
      "name": "consumers",
      "outputs": [
        {
          "name": "aId",
          "type": "uint256"
        },
        {
          "name": "name",
          "type": "string"
        },
        {
          "name": "age",
          "type": "uint256"
        },
        {
          "name": "vaccinated",
          "type": "bool"
        },
        {
          "name": "vacId",
          "type": "uint256"
        }
      ],
      "payable": false,
      "stateMutability": "view",
      "type": "function",
      "signature": "0x4651ed3d"
    },
    {
      "constant": true,
      "inputs": [],
      "name": "consCount",
      "outputs": [
        {
          "name": "",
          "type": "uint256"
        }
      ],
      "payable": false,
      "stateMutability": "view",
      "type": "function",
      "signature": "0x72706cf1"
    },
    {
      "inputs": [],
      "payable": false,
      "stateMutability": "nonpayable",
      "type": "constructor",
      "signature": "constructor"
    },
    {
      "anonymous": false,
      "inputs": [
        {
          "indexed": false,
          "name": "success",
          "type": "uint256"
        },
        {
          "indexed": false,
          "name": "aId",
          "type": "uint256"
        },
        {
          "indexed": false,
          "name": "name",
          "type": "string"
        },
        {
          "indexed": false,
          "name": "age",
          "type": "uint256"
        },
        {
          "indexed": false,
          "name": "vaccinated",
          "type": "bool"
        },
        {
          "indexed": false,
          "name": "vacId",
          "type": "uint256"
        }
      ],
      "name": "ConsumerAdded",
      "type": "event",
      "signature": "0xf394887fcc1330060fa70fe2bc562698db82b4fbb7860fb1ffcc2544721562ee"
    },
    {
      "anonymous": false,
      "inputs": [
        {
          "indexed": false,
          "name": "success",
          "type": "uint256"
        },
        {
          "indexed": false,
          "name": "aId",
          "type": "uint256"
        },
        {
          "indexed": false,
          "name": "name",
          "type": "string"
        },
        {
          "indexed": false,
          "name": "age",
          "type": "uint256"
        },
        {
          "indexed": false,
          "name": "vaccinated",
          "type": "bool"
        },
        {
          "indexed": false,
          "name": "vacId",
          "type": "uint256"
        }
      ],
      "name": "ThrowConsumerData",
      "type": "event",
      "signature": "0x63727b4100df06971a0421b467545388a29c25775663eac59404d59eb077494d"
    },
    {
      "anonymous": false,
      "inputs": [
        {
          "indexed": false,
          "name": "success",
          "type": "uint256"
        },
        {
          "indexed": false,
          "name": "aId",
          "type": "uint256"
        },
        {
          "indexed": false,
          "name": "vacId",
          "type": "uint256"
        },
        {
          "indexed": false,
          "name": "vaccinated",
          "type": "bool"
        }
      ],
      "name": "ConsumerVaccinated",
      "type": "event",
      "signature": "0xf94374ce758f8f3d7a97daefa59d4c1fa52c9a3fbf13690774b762c38bea65a7"
    },
    {
      "constant": false,
      "inputs": [
        {
          "name": "_aId",
          "type": "uint256"
        },
        {
          "name": "_name",
          "type": "string"
        },
        {
          "name": "_age",
          "type": "uint256"
        }
      ],
      "name": "AddConsumer",
      "outputs": [],
      "payable": false,
      "stateMutability": "nonpayable",
      "type": "function",
      "signature": "0x71a89bf2"
    },
    {
      "constant": false,
      "inputs": [
        {
          "name": "_aId",
          "type": "uint256"
        }
      ],
      "name": "GetConsumerData",
      "outputs": [],
      "payable": false,
      "stateMutability": "nonpayable",
      "type": "function",
      "signature": "0x6e9eba00"
    },
    {
      "constant": false,
      "inputs": [
        {
          "name": "_aId",
          "type": "uint256"
        },
        {
          "name": "_vacId",
          "type": "uint256"
        }
      ],
      "name": "toggleVaccinated",
      "outputs": [],
      "payable": false,
      "stateMutability": "nonpayable",
      "type": "function",
      "signature": "0x6e420646"
    }
  ],
  "bytecode": "0x6080604052600080553480156200001557600080fd5b506200006960006040805190810160405280600781526020017f67656e657369730000000000000000000000000000000000000000000000000081525060006200006f640100000000026401000000009004565b620002fc565b600160005b6000548111620000a8576000818152600160205260409020548514156200009f5760009150620000a8565b60010162000074565b50801562000204576000805460019081018083556040805160a0810182528881526020808201898152828401899052606083018790526080830187905293865284815291909420845181559151805192936200010d9390850192919091019062000257565b506040820151816002015560608201518160030160006101000a81548160ff0219169083151502179055506080820151816004015590505060008051602062000d1a8339815191526001858585600080604051808781526020018681526020018060200185815260200184151515158152602001838152602001828103825286818151815260200191508051906020019080838360005b83811015620001be578181015183820152602001620001a4565b50505050905090810190601f168015620001ec5780820380516001836020036101000a031916815260200191505b5097505050505050505060405180910390a162000251565b60408051600080825260208201819052606082018190526080820181905260a0820181905260c0828401819052820152905160008051602062000d1a833981519152918190036101000190a15b50505050565b828054600181600116156101000203166002900490600052602060002090601f016020900481019282601f106200029a57805160ff1916838001178555620002ca565b82800160010185558215620002ca579182015b82811115620002ca578251825591602001919060010190620002ad565b50620002d8929150620002dc565b5090565b620002f991905b80821115620002d85760008155600101620002e3565b90565b610a0e806200030c6000396000f3fe60806040526004361061006c5763ffffffff7c01000000000000000000000000000000000000000000000000000000006000350416634651ed3d81146100715780636e420646146101335780636e9eba001461016557806371a89bf21461018f57806372706cf11461024b575b600080fd5b34801561007d57600080fd5b5061009b6004803603602081101561009457600080fd5b5035610272565b604051808681526020018060200185815260200184151515158152602001838152602001828103825286818151815260200191508051906020019080838360005b838110156100f45781810151838201526020016100dc565b50505050905090810190601f1680156101215780820380516001836020036101000a031916815260200191505b50965050505050505060405180910390f35b34801561013f57600080fd5b506101636004803603604081101561015657600080fd5b5080359060200135610330565b005b34801561017157600080fd5b506101636004803603602081101561018857600080fd5b503561056d565b34801561019b57600080fd5b50610163600480360360608110156101b257600080fd5b813591908101906040810160208201356401000000008111156101d457600080fd5b8201836020820111156101e657600080fd5b8035906020019184600183028401116401000000008311171561020857600080fd5b91908080601f0160208091040260200160405190810160405280939291908181526020018383808284376000920191909152509295505091359250610711915050565b34801561025757600080fd5b5061026061090f565b60408051918252519081900360200190f35b600160208181526000928352604092839020805481840180548651600296821615610100026000190190911695909504601f8101859004850286018501909652858552909491939290919083018282801561030e5780601f106102e35761010080835404028352916020019161030e565b820191906000526020600020905b8154815290600101906020018083116102f157829003601f168201915b50505050600283015460038401546004909401549293909260ff909116915085565b60008060015b6000548111610369576000818152600160205260409020548514156103615760019250809150610369565b600101610336565b50811561051f57610378610915565b600082815260016020818152604092839020835160a0810185528154815281840180548651600296821615610100026000190190911695909504601f810185900485028601850190965285855290949193858401939092908301828280156104215780601f106103f657610100808354040283529160200191610421565b820191906000526020600020905b81548152906001019060200180831161040457829003601f168201915b50505091835250506002820154602080830191909152600383015460ff161515604080840191909152600490930154606092830152600191840182905260808401889052600086815282825292909220835181558383015180519495508594919361049193850192910190610947565b50604082810151600283015560608084015160038401805460ff191691151591909117905560809384015160049093019290925583518484015185840151835160018152602081019390935282840191909152151592810192909252517ff94374ce758f8f3d7a97daefa59d4c1fa52c9a3fbf13690774b762c38bea65a7929181900390910190a150610567565b60408051600080825260208201819052818301819052606082015290517ff94374ce758f8f3d7a97daefa59d4c1fa52c9a3fbf13690774b762c38bea65a79181900360800190a15b50505050565b6000805b60005481116105a15760008181526001602052604090205483141561059957600191506105a1565b600101610571565b81156106ae5760008181526001602081815260409283902080546002808301546003840154600485015488518881529687018590526060870183905260ff909116801515608088015260a0870182905260c09887018981529588018054600019818b1615610100020116949094049887018990527f63727b4100df06971a0421b467545388a29c25775663eac59404d59eb077494d98949693959294909391929060e0830190879080156106965780601f1061066b57610100808354040283529160200191610696565b820191906000526020600020905b81548152906001019060200180831161067957829003601f168201915b505097505050505050505060405180910390a161070c565b60408051600080825260208201819052606082018190526080820181905260a0820181905260c082840181905282015290517f63727b4100df06971a0421b467545388a29c25775663eac59404d59eb077494d918190036101000190a15b505050565b600160005b60005481116107465760008181526001602052604090205485141561073e5760009150610746565b600101610716565b5080156108ac576000805460019081018083556040805160a0810182528881526020808201898152828401899052606083018790526080830187905293865284815291909420845181559151805192936107a893908501929190910190610947565b506040820151816002015560608201518160030160006101000a81548160ff021916908315150217905550608082015181600401559050507ff394887fcc1330060fa70fe2bc562698db82b4fbb7860fb1ffcc2544721562ee6001858585600080604051808781526020018681526020018060200185815260200184151515158152602001838152602001828103825286818151815260200191508051906020019080838360005b83811015610868578181015183820152602001610850565b50505050905090810190601f1680156108955780820380516001836020036101000a031916815260200191505b5097505050505050505060405180910390a1610567565b60408051600080825260208201819052606082018190526080820181905260a0820181905260c082840181905282015290517ff394887fcc1330060fa70fe2bc562698db82b4fbb7860fb1ffcc2544721562ee918190036101000190a150505050565b60005481565b60a060405190810160405280600081526020016060815260200160008152602001600015158152602001600081525090565b828054600181600116156101000203166002900490600052602060002090601f016020900481019282601f1061098857805160ff19168380011785556109b5565b828001600101855582156109b5579182015b828111156109b557825182559160200191906001019061099a565b506109c19291506109c5565b5090565b6109df91905b808211156109c157600081556001016109cb565b9056fea165627a7a72305820edfc7819356edacdf6900c77bc14f4a79eee2b0462fa7b4887aebf510c05280c0029f394887fcc1330060fa70fe2bc562698db82b4fbb7860fb1ffcc2544721562ee",
  "source": "pragma solidity ^0.5.0;\r\n\r\ncontract ConsumerData {\r\n    uint public consCount = 0;\r\n\r\n    struct Consumer {\r\n        uint aId;\r\n        string name;\r\n        uint age;\r\n        bool vaccinated;\r\n        uint vacId;\r\n    }\r\n\r\n    mapping(uint => Consumer) public consumers;\r\n\r\n    constructor() public {\r\n        AddConsumer(0, 'genesis', 0);\r\n    }\r\n\r\n    event ConsumerAdded(\r\n        uint success,\r\n        uint aId,\r\n        string name,\r\n        uint age,\r\n        bool vaccinated,\r\n        uint vacId\r\n    );\r\n\r\n    function AddConsumer(uint _aId, string memory _name, uint _age) public {\r\n        bool proceed = true;\r\n        for(uint i = 0; i <= consCount; i++) {\r\n            if(_aId == consumers[i].aId) {\r\n                proceed = false;\r\n                break;\r\n            }\r\n        }\r\n        if(proceed) {\r\n            consCount ++;\r\n            consumers[consCount] = Consumer(_aId, _name, _age, false, 0);\r\n            emit ConsumerAdded(1, _aId, _name, _age, false, 0);\r\n        }\r\n        else\r\n            emit ConsumerAdded(0, 0, '', 0, false, 0);\r\n    }\r\n\r\n    event ThrowConsumerData(\r\n        uint success,\r\n        uint aId,\r\n        string name,\r\n        uint age,\r\n        bool vaccinated,\r\n        uint vacId\r\n    );\r\n\r\n    function GetConsumerData(uint _aId) public {\r\n        bool proceed = false;\r\n        uint i = 0;\r\n        for(i = 0; i <= consCount; i++) {\r\n            if(_aId == consumers[i].aId) {\r\n                proceed = true;\r\n                break;\r\n            }\r\n        }\r\n\r\n        if(proceed)\r\n            emit ThrowConsumerData(1, consumers[i].aId, consumers[i].name, consumers[i].age, consumers[i].vaccinated, consumers[i].vacId);\r\n        else\r\n            emit ThrowConsumerData(0, 0, '', 0, false, 0);\r\n    }\r\n\r\n    event ConsumerVaccinated(\r\n        uint success,\r\n        uint aId,\r\n        uint vacId,\r\n        bool vaccinated\r\n    );\r\n\r\n    function toggleVaccinated(uint _aId, uint _vacId) public {\r\n        bool present = false;\r\n        uint _id = 0;\r\n        for(uint i = 1; i <= consCount; i++) {\r\n            if(_aId == consumers[i].aId){\r\n                present = true;\r\n                _id = i;\r\n                break;\r\n            }\r\n        }\r\n        if(present) {\r\n            Consumer memory _consumer = consumers[_id];\r\n            _consumer.vaccinated = true;\r\n            _consumer.vacId = _vacId;\r\n            consumers[_id] = _consumer;\r\n            emit ConsumerVaccinated(1, _consumer.aId, _consumer.vacId, _consumer.vaccinated);\r\n        }\r\n        else\r\n            emit ConsumerVaccinated(0, 0, 0, false);\r\n    }\r\n}",
  "sourcePath": "C:/Users/kshit/Desktop/Vaccine-monitoring-system/contracts/ConsumerData.sol",
  "compiler": {
    "name": "solc",
    "version": "0.5.0+commit.1d4f565a.Emscripten.clang"
  },
  "schemaVersion": "3.0.1",
  "updatedAt": "2021-01-07T11:02:27.275Z",
  "devdoc": {
    "methods": {}
  },
  "userdoc": {
    "methods": {}
  }
}