{
  "contractName": "ConsumerData",
  "abi": [
    {
      "constant": true,
      "inputs": [
        {
          "name": "",
          "type": "uint256"
        }
      ],
      "name": "consumers",
      "outputs": [
        {
          "name": "id",
          "type": "uint256"
        },
        {
          "name": "name",
          "type": "string"
        },
        {
          "name": "age",
          "type": "uint256"
        },
        {
          "name": "vaccinated",
          "type": "bool"
        }
      ],
      "payable": false,
      "stateMutability": "view",
      "type": "function",
      "signature": "0x4651ed3d"
    },
    {
      "constant": true,
      "inputs": [],
      "name": "consCount",
      "outputs": [
        {
          "name": "",
          "type": "uint256"
        }
      ],
      "payable": false,
      "stateMutability": "view",
      "type": "function",
      "signature": "0x72706cf1"
    },
    {
      "anonymous": false,
      "inputs": [
        {
          "indexed": false,
          "name": "id",
          "type": "uint256"
        },
        {
          "indexed": false,
          "name": "name",
          "type": "string"
        },
        {
          "indexed": false,
          "name": "age",
          "type": "uint256"
        },
        {
          "indexed": false,
          "name": "vaccinated",
          "type": "bool"
        }
      ],
      "name": "ConsumerAdded",
      "type": "event",
      "signature": "0xca960780286984280702019edc751fb6b47c72da60e7e6b5c57ce4276becbdb0"
    },
    {
      "anonymous": false,
      "inputs": [
        {
          "indexed": false,
          "name": "id",
          "type": "uint256"
        },
        {
          "indexed": false,
          "name": "vaccinated",
          "type": "bool"
        }
      ],
      "name": "ConsumerVaccinated",
      "type": "event",
      "signature": "0x49ce319af9f87036a9c9505d10c470d22c88f495740ef15e95da6e12f608e8fb"
    },
    {
      "constant": false,
      "inputs": [
        {
          "name": "_name",
          "type": "string"
        },
        {
          "name": "_age",
          "type": "uint256"
        }
      ],
      "name": "AddConsumer",
      "outputs": [],
      "payable": false,
      "stateMutability": "nonpayable",
      "type": "function",
      "signature": "0x13c8a4f8"
    },
    {
      "constant": false,
      "inputs": [
        {
          "name": "_id",
          "type": "uint256"
        }
      ],
      "name": "toggleVaccinated",
      "outputs": [],
      "payable": false,
      "stateMutability": "nonpayable",
      "type": "function",
      "signature": "0xe1f9df59"
    }
  ],
  "bytecode": "0x60806040526000805534801561001457600080fd5b50610689806100246000396000f3fe6080604052600436106100615763ffffffff7c010000000000000000000000000000000000000000000000000000000060003504166313c8a4f881146100665780634651ed3d1461011d57806372706cf1146101d5578063e1f9df59146101fc575b600080fd5b34801561007257600080fd5b5061011b6004803603604081101561008957600080fd5b8101906020810181356401000000008111156100a457600080fd5b8201836020820111156100b657600080fd5b803590602001918460018302840111640100000000831117156100d857600080fd5b91908080601f0160208091040260200160405190810160405280939291908181526020018383808284376000920191909152509295505091359250610226915050565b005b34801561012957600080fd5b506101476004803603602081101561014057600080fd5b5035610364565b60408051858152908101839052811515606082015260806020808301828152865192840192909252855160a084019187019080838360005b8381101561019757818101518382015260200161017f565b50505050905090810190601f1680156101c45780820380516001836020036101000a031916815260200191505b509550505050505060405180910390f35b3480156101e157600080fd5b506101ea61041a565b60408051918252519081900360200190f35b34801561020857600080fd5b5061011b6004803603602081101561021f57600080fd5b5035610420565b60008054600190810180835560408051608081018252828152602080820188815282840188905260608301879052938652848152919094208451815591518051929361027a93908501929190910190610597565b506040820151816002015560608201518160030160006101000a81548160ff0219169083151502179055509050507fca960780286984280702019edc751fb6b47c72da60e7e6b5c57ce4276becbdb060005483836000604051808581526020018060200184815260200183151515158152602001828103825285818151815260200191508051906020019080838360005b8381101561032357818101518382015260200161030b565b50505050905090810190601f1680156103505780820380516001836020036101000a031916815260200191505b509550505050505060405180910390a15050565b600160208181526000928352604092839020805481840180548651600296821615610100026000190190911695909504601f810185900485028601850190965285855290949193929091908301828280156104005780601f106103d557610100808354040283529160200191610400565b820191906000526020600020905b8154815290600101906020018083116103e357829003601f168201915b50505050600283015460039093015491929160ff16905084565b60005481565b610428610615565b60008281526001602081815260409283902083516080810185528154815281840180548651600296821615610100026000190190911695909504601f810185900485028601850190965285855290949193858401939092908301828280156104d15780601f106104a6576101008083540402835291602001916104d1565b820191906000526020600020905b8154815290600101906020018083116104b457829003601f168201915b5050509183525050600282015460208083019190915260039092015460ff16151560409182015260608301805115905260008581526001808452919020835181558383015180519495508594919361052e93850192910190610597565b5060408281015160028301556060928301516003909201805460ff191692151592909217909155908201518151848152901515602082015281517f49ce319af9f87036a9c9505d10c470d22c88f495740ef15e95da6e12f608e8fb929181900390910190a15050565b828054600181600116156101000203166002900490600052602060002090601f016020900481019282601f106105d857805160ff1916838001178555610605565b82800160010185558215610605579182015b828111156106055782518255916020019190600101906105ea565b50610611929150610640565b5090565b6080604051908101604052806000815260200160608152602001600081526020016000151581525090565b61065a91905b808211156106115760008155600101610646565b9056fea165627a7a72305820c6f9cbbba7c74752ac27065c45e227fe5e45b488d0ad5901d99fe0e4fd5162bd0029",
  "source": "pragma solidity ^0.5.0;\r\n\r\ncontract ConsumerData {\r\n    uint public consCount = 0;\r\n\r\n    struct Consumer {\r\n        uint id;\r\n        string name;\r\n        uint age;\r\n        bool vaccinated;\r\n    }\r\n\r\n    mapping(uint => Consumer) public consumers;\r\n\r\n    event ConsumerAdded(\r\n        uint id,\r\n        string name,\r\n        uint age,\r\n        bool vaccinated\r\n    );\r\n\r\n    function AddConsumer(string memory _name, uint _age) public {\r\n        consCount ++;\r\n        consumers[consCount] = Consumer(consCount, _name, _age, false);\r\n        emit ConsumerAdded(consCount, _name, _age, false);\r\n    }\r\n\r\n    event ConsumerVaccinated(\r\n        uint id,\r\n        bool vaccinated\r\n    );\r\n\r\n    function toggleVaccinated(uint _id) public {\r\n        Consumer memory _consumer = consumers[_id];\r\n        _consumer.vaccinated = !_consumer.vaccinated;\r\n        consumers[_id] = _consumer;\r\n        emit ConsumerVaccinated(_id, _consumer.vaccinated);\r\n    }\r\n}",
  "sourcePath": "C:/Users/kshit/Desktop/Vaccine-monitoring-system/contracts/ConsumerData.sol",
  "compiler": {
    "name": "solc",
    "version": "0.5.0+commit.1d4f565a.Emscripten.clang"
  },
  "schemaVersion": "3.0.1",
  "updatedAt": "2021-01-02T21:13:21.339Z",
  "devdoc": {
    "methods": {}
  },
  "userdoc": {
    "methods": {}
  }
}