{
  "contractName": "ConsumerData",
  "abi": [
    {
      "constant": true,
      "inputs": [
        {
          "name": "",
          "type": "uint256"
        }
      ],
      "name": "consumers",
      "outputs": [
        {
          "name": "id",
          "type": "uint256"
        },
        {
          "name": "aId",
          "type": "uint256"
        },
        {
          "name": "name",
          "type": "string"
        },
        {
          "name": "age",
          "type": "uint256"
        },
        {
          "name": "vaccinated",
          "type": "bool"
        }
      ],
      "payable": false,
      "stateMutability": "view",
      "type": "function",
      "signature": "0x4651ed3d"
    },
    {
      "constant": true,
      "inputs": [],
      "name": "consCount",
      "outputs": [
        {
          "name": "",
          "type": "uint256"
        }
      ],
      "payable": false,
      "stateMutability": "view",
      "type": "function",
      "signature": "0x72706cf1"
    },
    {
      "inputs": [],
      "payable": false,
      "stateMutability": "nonpayable",
      "type": "constructor",
      "signature": "constructor"
    },
    {
      "anonymous": false,
      "inputs": [
        {
          "indexed": false,
          "name": "id",
          "type": "uint256"
        },
        {
          "indexed": false,
          "name": "aId",
          "type": "uint256"
        },
        {
          "indexed": false,
          "name": "name",
          "type": "string"
        },
        {
          "indexed": false,
          "name": "age",
          "type": "uint256"
        },
        {
          "indexed": false,
          "name": "vaccinated",
          "type": "bool"
        }
      ],
      "name": "ConsumerAdded",
      "type": "event",
      "signature": "0x227005a4b30cdb8568d3418e25daebd83ed5badf259a7dd5904d49a63d03c2a1"
    },
    {
      "anonymous": false,
      "inputs": [
        {
          "indexed": false,
          "name": "aId",
          "type": "uint256"
        },
        {
          "indexed": false,
          "name": "vaccinated",
          "type": "bool"
        }
      ],
      "name": "ConsumerVaccinated",
      "type": "event",
      "signature": "0x49ce319af9f87036a9c9505d10c470d22c88f495740ef15e95da6e12f608e8fb"
    },
    {
      "constant": false,
      "inputs": [
        {
          "name": "_aId",
          "type": "uint256"
        },
        {
          "name": "_name",
          "type": "string"
        },
        {
          "name": "_age",
          "type": "uint256"
        }
      ],
      "name": "AddConsumer",
      "outputs": [],
      "payable": false,
      "stateMutability": "nonpayable",
      "type": "function",
      "signature": "0x71a89bf2"
    },
    {
      "constant": false,
      "inputs": [
        {
          "name": "_id",
          "type": "uint256"
        }
      ],
      "name": "toggleVaccinated",
      "outputs": [],
      "payable": false,
      "stateMutability": "nonpayable",
      "type": "function",
      "signature": "0xe1f9df59"
    }
  ],
  "bytecode": "0x60806040526000805534801561001457600080fd5b50610066600c6040805190810160405280600781526020017f6b73686974696a00000000000000000000000000000000000000000000000000815250602261006b640100000000026401000000009004565b61029f565b600160005b60005481116100a4576000818152600160208190526040909120015485141561009c57600091506100a4565b600101610070565b5080156101fe576000805460019081018083556040805160a08101825282815260208082018a81528284018a8152606084018a9052608084018890529487528582529290952081518155915193820193909355905180519293919261010f9260028501920190610204565b506060820151816003015560808201518160040160006101000a81548160ff0219169083151502179055509050507f227005a4b30cdb8568d3418e25daebd83ed5badf259a7dd5904d49a63d03c2a16000548585856000604051808681526020018581526020018060200184815260200183151515158152602001828103825285818151815260200191508051906020019080838360005b838110156101bf5781810151838201526020016101a7565b50505050905090810190601f1680156101ec5780820380516001836020036101000a031916815260200191505b50965050505050505060405180910390a15b50505050565b828054600181600116156101000203166002900490600052602060002090601f016020900481019282601f1061024557805160ff1916838001178555610272565b82800160010185558215610272579182015b82811115610272578251825591602001919060010190610257565b5061027e929150610282565b5090565b61029c91905b8082111561027e5760008155600101610288565b90565b610730806102ae6000396000f3fe6080604052600436106100615763ffffffff7c01000000000000000000000000000000000000000000000000000000006000350416634651ed3d811461006657806371a89bf21461012857806372706cf1146101e6578063e1f9df591461020d575b600080fd5b34801561007257600080fd5b506100906004803603602081101561008957600080fd5b5035610237565b604051808681526020018581526020018060200184815260200183151515158152602001828103825285818151815260200191508051906020019080838360005b838110156100e95781810151838201526020016100d1565b50505050905090810190601f1680156101165780820380516001836020036101000a031916815260200191505b50965050505050505060405180910390f35b34801561013457600080fd5b506101e46004803603606081101561014b57600080fd5b8135919081019060408101602082013564010000000081111561016d57600080fd5b82018360208201111561017f57600080fd5b803590602001918460018302840111640100000000831117156101a157600080fd5b91908080601f0160208091040260200160405190810160405280939291908181526020018383808284376000920191909152509295505091359250610309915050565b005b3480156101f257600080fd5b506101fb6104a2565b60408051918252519081900360200190f35b34801561021957600080fd5b506101e46004803603602081101561023057600080fd5b50356104a8565b6001602052806000526040600020600091509050806000015490806001015490806002018054600181600116156101000203166002900480601f0160208091040260200160405190810160405280929190818152602001828054600181600116156101000203166002900480156102ef5780601f106102c4576101008083540402835291602001916102ef565b820191906000526020600020905b8154815290600101906020018083116102d257829003601f168201915b50505050600383015460049093015491929160ff16905085565b600160005b6000548111610342576000818152600160208190526040909120015485141561033a5760009150610342565b60010161030e565b50801561049c576000805460019081018083556040805160a08101825282815260208082018a81528284018a8152606084018a905260808401889052948752858252929095208151815591519382019390935590518051929391926103ad9260028501920190610637565b506060820151816003015560808201518160040160006101000a81548160ff0219169083151502179055509050507f227005a4b30cdb8568d3418e25daebd83ed5badf259a7dd5904d49a63d03c2a16000548585856000604051808681526020018581526020018060200184815260200183151515158152602001828103825285818151815260200191508051906020019080838360005b8381101561045d578181015183820152602001610445565b50505050905090810190601f16801561048a5780820380516001836020036101000a031916815260200191505b50965050505050505060405180910390a15b50505050565b60005481565b6104b06106b5565b600082815260016020818152604092839020835160a0810185528154815281840154818401526002808301805487519681161561010002600019011691909104601f81018590048502860185018752808652919592949286019390919083018282801561055e5780601f106105335761010080835404028352916020019161055e565b820191906000526020600020905b81548152906001019060200180831161054157829003601f168201915b5050509183525050600382015460208083019190915260049092015460ff1615156040918201526001608084018190526000868152818452829020845181558484015191810191909155908301518051939450849391926105c792600285019290910190610637565b50606082015160038201556080918201516004909101805460ff191691151591909117905560208281015191830151604080519384529015159183019190915280517f49ce319af9f87036a9c9505d10c470d22c88f495740ef15e95da6e12f608e8fb9281900390910190a15050565b828054600181600116156101000203166002900490600052602060002090601f016020900481019282601f1061067857805160ff19168380011785556106a5565b828001600101855582156106a5579182015b828111156106a557825182559160200191906001019061068a565b506106b19291506106e7565b5090565b60a060405190810160405280600081526020016000815260200160608152602001600081526020016000151581525090565b61070191905b808211156106b157600081556001016106ed565b9056fea165627a7a723058204443c11876b9f836e1bc0f000d5562abb231195ce59e8775b77c7cf5c40b8e1a0029",
  "source": "pragma solidity ^0.5.0;\r\n\r\ncontract ConsumerData {\r\n    uint public consCount = 0;\r\n\r\n    struct Consumer {\r\n        uint id;\r\n        uint aId;\r\n        string name;\r\n        uint age;\r\n        bool vaccinated;\r\n    }\r\n\r\n    mapping(uint => Consumer) public consumers;\r\n\r\n    event ConsumerAdded(\r\n        uint id,\r\n        uint aId,\r\n        string name,\r\n        uint age,\r\n        bool vaccinated\r\n    );\r\n\r\n    constructor() public {\r\n        AddConsumer(12, 'kshitij', 34);\r\n    }\r\n\r\n    function AddConsumer(uint _aId, string memory _name, uint _age) public {\r\n        bool proceed = true;\r\n        for(uint i = 0; i <= consCount; i++) {\r\n            if(_aId == consumers[i].aId) {\r\n                proceed = false;\r\n                break;\r\n            }\r\n        }\r\n        if(proceed) {\r\n            consCount ++;\r\n            consumers[consCount] = Consumer(consCount, _aId, _name, _age, false);\r\n            emit ConsumerAdded(consCount, _aId, _name, _age, false);\r\n        }\r\n    }\r\n\r\n    event ConsumerVaccinated(\r\n        uint aId,\r\n        bool vaccinated\r\n    );\r\n\r\n    function toggleVaccinated(uint _id) public {\r\n        Consumer memory _consumer = consumers[_id];\r\n        _consumer.vaccinated = true;\r\n        consumers[_id] = _consumer;\r\n        emit ConsumerVaccinated(_consumer.aId, _consumer.vaccinated);\r\n    }\r\n}",
  "sourcePath": "C:/Users/kshit/Desktop/Vaccine-monitoring-system/contracts/ConsumerData.sol",
  "compiler": {
    "name": "solc",
    "version": "0.5.0+commit.1d4f565a.Emscripten.clang"
  },
  "schemaVersion": "3.0.1",
  "updatedAt": "2021-01-03T13:53:26.478Z",
  "devdoc": {
    "methods": {}
  },
  "userdoc": {
    "methods": {}
  }
}