{
  "contractName": "ConsumerData",
  "abi": [
    {
      "constant": true,
      "inputs": [
        {
          "name": "",
          "type": "uint256"
        }
      ],
      "name": "consumers",
      "outputs": [
        {
          "name": "id",
          "type": "uint256"
        },
        {
          "name": "aId",
          "type": "uint256"
        },
        {
          "name": "name",
          "type": "string"
        },
        {
          "name": "age",
          "type": "uint256"
        },
        {
          "name": "vaccinated",
          "type": "bool"
        },
        {
          "name": "vacId",
          "type": "uint256"
        }
      ],
      "payable": false,
      "stateMutability": "view",
      "type": "function",
      "signature": "0x4651ed3d"
    },
    {
      "constant": true,
      "inputs": [],
      "name": "consCount",
      "outputs": [
        {
          "name": "",
          "type": "uint256"
        }
      ],
      "payable": false,
      "stateMutability": "view",
      "type": "function",
      "signature": "0x72706cf1"
    },
    {
      "inputs": [],
      "payable": false,
      "stateMutability": "nonpayable",
      "type": "constructor",
      "signature": "constructor"
    },
    {
      "anonymous": false,
      "inputs": [
        {
          "indexed": false,
          "name": "id",
          "type": "uint256"
        },
        {
          "indexed": false,
          "name": "aId",
          "type": "uint256"
        },
        {
          "indexed": false,
          "name": "name",
          "type": "string"
        },
        {
          "indexed": false,
          "name": "age",
          "type": "uint256"
        },
        {
          "indexed": false,
          "name": "vaccinated",
          "type": "bool"
        },
        {
          "indexed": false,
          "name": "vacId",
          "type": "uint256"
        }
      ],
      "name": "ConsumerAdded",
      "type": "event",
      "signature": "0xf394887fcc1330060fa70fe2bc562698db82b4fbb7860fb1ffcc2544721562ee"
    },
    {
      "anonymous": false,
      "inputs": [
        {
          "indexed": false,
          "name": "aId",
          "type": "uint256"
        },
        {
          "indexed": false,
          "name": "vacId",
          "type": "uint256"
        },
        {
          "indexed": false,
          "name": "vaccinated",
          "type": "bool"
        }
      ],
      "name": "ConsumerVaccinated",
      "type": "event",
      "signature": "0xf1bb88fd30023ecf99c3d0aa40d0f76a66f4e8ceef4563b789022e47198813a5"
    },
    {
      "constant": true,
      "inputs": [],
      "name": "getStatus",
      "outputs": [
        {
          "name": "",
          "type": "bool"
        }
      ],
      "payable": false,
      "stateMutability": "view",
      "type": "function",
      "signature": "0x4e69d560"
    },
    {
      "constant": false,
      "inputs": [
        {
          "name": "_aId",
          "type": "uint256"
        },
        {
          "name": "_name",
          "type": "string"
        },
        {
          "name": "_age",
          "type": "uint256"
        }
      ],
      "name": "AddConsumer",
      "outputs": [],
      "payable": false,
      "stateMutability": "nonpayable",
      "type": "function",
      "signature": "0x71a89bf2"
    },
    {
      "constant": false,
      "inputs": [
        {
          "name": "_aId",
          "type": "uint256"
        },
        {
          "name": "_vacId",
          "type": "uint256"
        }
      ],
      "name": "toggleVaccinated",
      "outputs": [],
      "payable": false,
      "stateMutability": "nonpayable",
      "type": "function",
      "signature": "0x6e420646"
    }
  ],
  "bytecode": "0x6080604052600080556001805460ff19168117905534801561002057600080fd5b5061007260006040805190810160405280600781526020017f67656e65736973000000000000000000000000000000000000000000000000008152506000610077640100000000026401000000009004565b6102df565b600160005b60005481116100af576000818152600260205260409020600101548514156100a757600091506100af565b60010161007c565b508015610233576000805460019081018083556040805160c08101825282815260208082018a81528284018a8152606084018a90526080840188905260a0840188905294875260028083529390962082518155955194860194909455915180519294936101229392850192910190610244565b506060820151816003015560808201518160040160006101000a81548160ff02191690831515021790555060a082015181600501559050507ff394887fcc1330060fa70fe2bc562698db82b4fbb7860fb1ffcc2544721562ee600054858585600080604051808781526020018681526020018060200185815260200184151515158152602001838152602001828103825286818151815260200191508051906020019080838360005b838110156101e35781810151838201526020016101cb565b50505050905090810190601f1680156102105780820380516001836020036101000a031916815260200191505b5097505050505050505060405180910390a16001805460ff19168117905561023e565b6001805460ff191690555b50505050565b828054600181600116156101000203166002900490600052602060002090601f016020900481019282601f1061028557805160ff19168380011785556102b2565b828001600101855582156102b2579182015b828111156102b2578251825591602001919060010190610297565b506102be9291506102c2565b5090565b6102dc91905b808211156102be57600081556001016102c8565b90565b610825806102ee6000396000f3fe60806040526004361061006c5763ffffffff7c01000000000000000000000000000000000000000000000000000000006000350416634651ed3d81146100715780634e69d5601461013a5780636e4206461461016357806371a89bf21461019557806372706cf114610251575b600080fd5b34801561007d57600080fd5b5061009b6004803603602081101561009457600080fd5b5035610278565b604051808781526020018681526020018060200185815260200184151515158152602001838152602001828103825286818151815260200191508051906020019080838360005b838110156100fa5781810151838201526020016100e2565b50505050905090810190601f1680156101275780820380516001836020036101000a031916815260200191505b5097505050505050505060405180910390f35b34801561014657600080fd5b5061014f61033a565b604080519115158252519081900360200190f35b34801561016f57600080fd5b506101936004803603604081101561018657600080fd5b5080359060200135610344565b005b3480156101a157600080fd5b50610193600480360360608110156101b857600080fd5b813591908101906040810160208201356401000000008111156101da57600080fd5b8201836020820111156101ec57600080fd5b8035906020019184600183028401116401000000008311171561020e57600080fd5b91908080601f0160208091040260200160405190810160405280939291908181526020018383808284376000920191909152509295505091359250610566915050565b34801561025d57600080fd5b50610266610722565b60408051918252519081900360200190f35b6002602081815260009283526040928390208054600180830154838601805488519381161561010002600019011696909604601f8101869004860283018601909752868252919591949293909291908301828280156103185780601f106102ed57610100808354040283529160200191610318565b820191906000526020600020905b8154815290600101906020018083116102fb57829003601f168201915b50505050600383015460048401546005909401549293909260ff909116915086565b60015460ff165b90565b60008060015b6000548111610380576000818152600260205260409020600101548514156103785760019250809150610380565b60010161034a565b5081156105555761038f610728565b600082815260026020818152604092839020835160c0810185528154815260018083015482850152828501805487519281161561010002600019011695909504601f8101859004850282018501875280825291959294928601939092919083018282801561043e5780601f106104135761010080835404028352916020019161043e565b820191906000526020600020905b81548152906001019060200180831161042157829003601f168201915b50505091835250506003820154602080830191909152600483015460ff16151560408084019190915260059093015460609092019190915260016080840181905260a084018890526000868152600280845290849020855181558584015192810192909255928401518051949550859491936104c09390850192910190610761565b50606082810151600383015560808084015160048401805460ff191691151591909117905560a093840151600590930192909255602084810151938501519285015160408051958652918501939093529115158383015290517ff1bb88fd30023ecf99c3d0aa40d0f76a66f4e8ceef4563b789022e47198813a59281900390910190a1506001805460ff191681179055610560565b6001805460ff191690555b50505050565b600160005b600054811161059e57600081815260026020526040902060010154851415610596576000915061059e565b60010161056b565b508015610555576000805460019081018083556040805160c08101825282815260208082018a81528284018a8152606084018a90526080840188905260a0840188905294875260028083529390962082518155955194860194909455915180519294936106119392850192910190610761565b506060820151816003015560808201518160040160006101000a81548160ff02191690831515021790555060a082015181600501559050507ff394887fcc1330060fa70fe2bc562698db82b4fbb7860fb1ffcc2544721562ee600054858585600080604051808781526020018681526020018060200185815260200184151515158152602001838152602001828103825286818151815260200191508051906020019080838360005b838110156106d25781810151838201526020016106ba565b50505050905090810190601f1680156106ff5780820380516001836020036101000a031916815260200191505b5097505050505050505060405180910390a16001805460ff191681179055610560565b60005481565b60c06040519081016040528060008152602001600081526020016060815260200160008152602001600015158152602001600081525090565b828054600181600116156101000203166002900490600052602060002090601f016020900481019282601f106107a257805160ff19168380011785556107cf565b828001600101855582156107cf579182015b828111156107cf5782518255916020019190600101906107b4565b506107db9291506107df565b5090565b61034191905b808211156107db57600081556001016107e556fea165627a7a723058207926b2395a64b33075a4a0dddc7e64679bb66cfec9a0de118ee7f1af48b7d4890029",
  "source": "pragma solidity ^0.5.0;\r\n\r\ncontract ConsumerData {\r\n    uint public consCount = 0;\r\n    bool success = true;\r\n\r\n    struct Consumer {\r\n        uint id;\r\n        uint aId;\r\n        string name;\r\n        uint age;\r\n        bool vaccinated;\r\n        uint vacId;\r\n    }\r\n\r\n    function getStatus() view public returns (bool) {\r\n        return success;\r\n    }\r\n\r\n    mapping(uint => Consumer) public consumers;\r\n\r\n    constructor() public {\r\n        AddConsumer(0, 'genesis', 0);\r\n    }\r\n\r\n    event ConsumerAdded(\r\n        uint id,\r\n        uint aId,\r\n        string name,\r\n        uint age,\r\n        bool vaccinated,\r\n        uint vacId\r\n    );\r\n\r\n    function AddConsumer(uint _aId, string memory _name, uint _age) public {\r\n        bool proceed = true;\r\n        for(uint i = 0; i <= consCount; i++) {\r\n            if(_aId == consumers[i].aId) {\r\n                proceed = false;\r\n                break;\r\n            }\r\n        }\r\n        if(proceed) {\r\n            consCount ++;\r\n            consumers[consCount] = Consumer(consCount, _aId, _name, _age, false, 0);\r\n            emit ConsumerAdded(consCount, _aId, _name, _age, false, 0);\r\n            success = true;\r\n        }\r\n        else\r\n            success = false;\r\n    }\r\n\r\n    event ConsumerVaccinated(\r\n        uint aId,\r\n        uint vacId,\r\n        bool vaccinated\r\n    );\r\n\r\n    function toggleVaccinated(uint _aId, uint _vacId) public {\r\n        bool present = false;\r\n        uint _id = 0;\r\n        for(uint i = 1; i <= consCount; i++) {\r\n            if(_aId == consumers[i].aId){\r\n                present = true;\r\n                _id = i;\r\n                break;\r\n            }\r\n        }\r\n        if(present) {\r\n            Consumer memory _consumer = consumers[_id];\r\n            _consumer.vaccinated = true;\r\n            _consumer.vacId = _vacId;\r\n            consumers[_id] = _consumer;\r\n            emit ConsumerVaccinated(_consumer.aId, _consumer.vacId, _consumer.vaccinated);\r\n            success = true;\r\n        }\r\n        else\r\n            success = false;\r\n    }\r\n}",
  "sourcePath": "C:/Users/kshit/Desktop/Vaccine-monitoring-system/contracts/ConsumerData.sol",
  "compiler": {
    "name": "solc",
    "version": "0.5.0+commit.1d4f565a.Emscripten.clang"
  },
  "schemaVersion": "3.0.1",
  "updatedAt": "2021-01-04T13:45:45.022Z",
  "devdoc": {
    "methods": {}
  },
  "userdoc": {
    "methods": {}
  }
}