{
  "contractName": "DistributorData",
  "abi": [
    {
      "constant": true,
      "inputs": [],
      "name": "distCount",
      "outputs": [
        {
          "name": "",
          "type": "uint256"
        }
      ],
      "payable": false,
      "stateMutability": "view",
      "type": "function",
      "signature": "0x4d3fdae9"
    },
    {
      "constant": true,
      "inputs": [
        {
          "name": "",
          "type": "uint256"
        }
      ],
      "name": "distributors",
      "outputs": [
        {
          "name": "id",
          "type": "uint256"
        },
        {
          "name": "name",
          "type": "string"
        },
        {
          "name": "vaccineName",
          "type": "string"
        }
      ],
      "payable": false,
      "stateMutability": "view",
      "type": "function",
      "signature": "0x50b492ba"
    },
    {
      "inputs": [],
      "payable": false,
      "stateMutability": "nonpayable",
      "type": "constructor",
      "signature": "constructor"
    },
    {
      "anonymous": false,
      "inputs": [
        {
          "indexed": false,
          "name": "id",
          "type": "uint256"
        },
        {
          "indexed": false,
          "name": "name",
          "type": "string"
        },
        {
          "indexed": false,
          "name": "vaccineName",
          "type": "string"
        }
      ],
      "name": "DistributorAdded",
      "type": "event",
      "signature": "0x52f38163de1016eaf3a56c5ae2ef14c89bc0e0214c215f70c36b749d295ef222"
    },
    {
      "constant": true,
      "inputs": [],
      "name": "getStatus",
      "outputs": [
        {
          "name": "",
          "type": "bool"
        }
      ],
      "payable": false,
      "stateMutability": "view",
      "type": "function",
      "signature": "0x4e69d560"
    },
    {
      "constant": false,
      "inputs": [
        {
          "name": "_id",
          "type": "uint256"
        },
        {
          "name": "_name",
          "type": "string"
        },
        {
          "name": "_vaccineName",
          "type": "string"
        }
      ],
      "name": "AddDistributor",
      "outputs": [],
      "payable": false,
      "stateMutability": "nonpayable",
      "type": "function",
      "signature": "0x2816017d"
    }
  ],
  "bytecode": "0x6080604052600080556001805460ff19168117905534801561002057600080fd5b506100a660006040805190810160405280600781526020017f67656e65736973000000000000000000000000000000000000000000000000008152506040805190810160405280600381526020017f4e2f4100000000000000000000000000000000000000000000000000000000008152506100ab640100000000026401000000009004565b61031a565b600160005b60005481116100e0576000818152600260205260409020548514156100d857600091506100e0565b6001016100b0565b50801561026e576000805460019081018083556040805160608101825288815260208082018981528284018990529386526002815291909420845181559151805192936101359390850192919091019061027f565b506040820151805161015191600284019160209091019061027f565b509050507f52f38163de1016eaf3a56c5ae2ef14c89bc0e0214c215f70c36b749d295ef222848484604051808481526020018060200180602001838103835285818151815260200191508051906020019080838360005b838110156101c05781810151838201526020016101a8565b50505050905090810190601f1680156101ed5780820380516001836020036101000a031916815260200191505b50838103825284518152845160209182019186019080838360005b83811015610220578181015183820152602001610208565b50505050905090810190601f16801561024d5780820380516001836020036101000a031916815260200191505b509550505050505060405180910390a16001805460ff191681179055610279565b6001805460ff191690555b50505050565b828054600181600116156101000203166002900490600052602060002090601f016020900481019282601f106102c057805160ff19168380011785556102ed565b828001600101855582156102ed579182015b828111156102ed5782518255916020019190600101906102d2565b506102f99291506102fd565b5090565b61031791905b808211156102f95760008155600101610303565b90565b6106e7806103296000396000f3fe6080604052600436106100615763ffffffff7c01000000000000000000000000000000000000000000000000000000006000350416632816017d81146100665780634d3fdae9146101a95780634e69d560146101d057806350b492ba146101f9575b600080fd5b34801561007257600080fd5b506101a76004803603606081101561008957600080fd5b813591908101906040810160208201356401000000008111156100ab57600080fd5b8201836020820111156100bd57600080fd5b803590602001918460018302840111640100000000831117156100df57600080fd5b91908080601f016020809104026020016040519081016040528093929190818152602001838380828437600092019190915250929594936020810193503591505064010000000081111561013257600080fd5b82018360208201111561014457600080fd5b8035906020019184600183028401116401000000008311171561016657600080fd5b91908080601f016020809104026020016040519081016040528093929190818152602001838380828437600092019190915250929550610308945050505050565b005b3480156101b557600080fd5b506101be6104dc565b60408051918252519081900360200190f35b3480156101dc57600080fd5b506101e56104e2565b604080519115158252519081900360200190f35b34801561020557600080fd5b506102236004803603602081101561021c57600080fd5b50356104ec565b604051808481526020018060200180602001838103835285818151815260200191508051906020019080838360005b8381101561026a578181015183820152602001610252565b50505050905090810190601f1680156102975780820380516001836020036101000a031916815260200191505b50838103825284518152845160209182019186019080838360005b838110156102ca5781810151838201526020016102b2565b50505050905090810190601f1680156102f75780820380516001836020036101000a031916815260200191505b509550505050505060405180910390f35b600160005b600054811161033d57600081815260026020526040902054851415610335576000915061033d565b60010161030d565b5080156104cb5760008054600190810180835560408051606081018252888152602080820189815282840189905293865260028152919094208451815591518051929361039293908501929190910190610623565b50604082015180516103ae916002840191602090910190610623565b509050507f52f38163de1016eaf3a56c5ae2ef14c89bc0e0214c215f70c36b749d295ef222848484604051808481526020018060200180602001838103835285818151815260200191508051906020019080838360005b8381101561041d578181015183820152602001610405565b50505050905090810190601f16801561044a5780820380516001836020036101000a031916815260200191505b50838103825284518152845160209182019186019080838360005b8381101561047d578181015183820152602001610465565b50505050905090810190601f1680156104aa5780820380516001836020036101000a031916815260200191505b509550505050505060405180910390a16001805460ff1916811790556104d6565b6001805460ff191690555b50505050565b60005481565b60015460ff165b90565b60026020818152600092835260409283902080546001808301805487519281161561010002600019011695909504601f81018590048502820185019096528581529094919390929091908301828280156105875780601f1061055c57610100808354040283529160200191610587565b820191906000526020600020905b81548152906001019060200180831161056a57829003601f168201915b50505060028085018054604080516020601f60001961010060018716150201909416959095049283018590048502810185019091528181529596959450909250908301828280156106195780601f106105ee57610100808354040283529160200191610619565b820191906000526020600020905b8154815290600101906020018083116105fc57829003601f168201915b5050505050905083565b828054600181600116156101000203166002900490600052602060002090601f016020900481019282601f1061066457805160ff1916838001178555610691565b82800160010185558215610691579182015b82811115610691578251825591602001919060010190610676565b5061069d9291506106a1565b5090565b6104e991905b8082111561069d57600081556001016106a756fea165627a7a7230582049692a42a01af222c8a38720f9a7040a57da5220b93df679f62eef4eb95b543e0029",
  "source": "pragma solidity ^0.5.0;\r\n\r\ncontract DistributorData {\r\n    uint public distCount = 0;\r\n    bool success = true;\r\n\r\n    struct Distributor {\r\n        uint id;\r\n        string name;\r\n        string vaccineName;\r\n    }\r\n\r\n    function getStatus() view public returns (bool) {\r\n        return success;\r\n    }\r\n\r\n    mapping(uint => Distributor) public distributors;\r\n\r\n    constructor() public {\r\n        AddDistributor(0, 'genesis', 'N/A');\r\n    }\r\n\r\n    event DistributorAdded (\r\n        uint id,\r\n        string name,\r\n        string vaccineName\r\n    );\r\n\r\n    function AddDistributor(uint _id, string memory _name, string memory _vaccineName) public {\r\n        bool proceed = true;\r\n        for(uint i = 0; i <= distCount; i++) {\r\n            if(_id == distributors[i].id) {\r\n                proceed = false;\r\n                break;\r\n            }\r\n        }\r\n        if(proceed) {\r\n            distCount ++;\r\n            distributors[distCount] = Distributor(_id, _name, _vaccineName);\r\n            emit DistributorAdded(_id, _name, _vaccineName);\r\n            success = true;\r\n        }\r\n        else\r\n            success = false;\r\n    }\r\n}",
  "sourcePath": "C:/Users/kshit/Desktop/Vaccine-monitoring-system/contracts/DistributorData.sol",
  "compiler": {
    "name": "solc",
    "version": "0.5.0+commit.1d4f565a.Emscripten.clang"
  },
  "schemaVersion": "3.0.1",
  "updatedAt": "2021-01-04T13:45:45.019Z",
  "devdoc": {
    "methods": {}
  },
  "userdoc": {
    "methods": {}
  }
}