{
  "contractName": "DistributorData",
  "abi": [
    {
      "constant": true,
      "inputs": [],
      "name": "distCount",
      "outputs": [
        {
          "name": "",
          "type": "uint256"
        }
      ],
      "payable": false,
      "stateMutability": "view",
      "type": "function",
      "signature": "0x4d3fdae9"
    },
    {
      "constant": true,
      "inputs": [
        {
          "name": "",
          "type": "uint256"
        }
      ],
      "name": "distributors",
      "outputs": [
        {
          "name": "id",
          "type": "uint256"
        },
        {
          "name": "name",
          "type": "string"
        },
        {
          "name": "vaccineName",
          "type": "string"
        }
      ],
      "payable": false,
      "stateMutability": "view",
      "type": "function",
      "signature": "0x50b492ba"
    },
    {
      "inputs": [],
      "payable": false,
      "stateMutability": "nonpayable",
      "type": "constructor",
      "signature": "constructor"
    },
    {
      "anonymous": false,
      "inputs": [
        {
          "indexed": false,
          "name": "success",
          "type": "uint256"
        },
        {
          "indexed": false,
          "name": "id",
          "type": "uint256"
        },
        {
          "indexed": false,
          "name": "name",
          "type": "string"
        },
        {
          "indexed": false,
          "name": "vaccineName",
          "type": "string"
        }
      ],
      "name": "DistributorAdded",
      "type": "event",
      "signature": "0x207679f58e9b1cb9994d050b1560a214c7c2b75b206f512b91bc3429c9dc00e0"
    },
    {
      "anonymous": false,
      "inputs": [
        {
          "indexed": false,
          "name": "success",
          "type": "uint256"
        },
        {
          "indexed": false,
          "name": "id",
          "type": "uint256"
        },
        {
          "indexed": false,
          "name": "name",
          "type": "string"
        },
        {
          "indexed": false,
          "name": "vaccineName",
          "type": "string"
        }
      ],
      "name": "ThrowDistributorData",
      "type": "event",
      "signature": "0xd29cbe826f74ea20d95af48bb0dc6db02d85f7c1f31110c078678a47d9a376c4"
    },
    {
      "constant": false,
      "inputs": [
        {
          "name": "_id",
          "type": "uint256"
        },
        {
          "name": "_name",
          "type": "string"
        },
        {
          "name": "_vaccineName",
          "type": "string"
        }
      ],
      "name": "AddDistributor",
      "outputs": [],
      "payable": false,
      "stateMutability": "nonpayable",
      "type": "function",
      "signature": "0x2816017d"
    },
    {
      "constant": false,
      "inputs": [
        {
          "name": "_id",
          "type": "uint256"
        }
      ],
      "name": "GetDistributorData",
      "outputs": [],
      "payable": false,
      "stateMutability": "nonpayable",
      "type": "function",
      "signature": "0x33ab3393"
    }
  ],
  "bytecode": "0x6080604052600080553480156200001557600080fd5b506200009d60006040805190810160405280600781526020017f67656e65736973000000000000000000000000000000000000000000000000008152506040805190810160405280600381526020017f4e2f410000000000000000000000000000000000000000000000000000000000815250620000a3640100000000026401000000009004565b62000352565b600160005b6000548111620000dc57600081815260016020526040902054851415620000d35760009150620000dc565b600101620000a8565b508015620002615760008054600190810180835560408051606081018252888152602080820189815282840189905293865284815291909420845181559151805192936200013393908501929190910190620002ad565b506040820151805162000151916002840191602090910190620002ad565b5090505060008051602062000c778339815191526001858585604051808581526020018481526020018060200180602001838103835285818151815260200191508051906020019080838360005b83811015620001b95781810151838201526020016200019f565b50505050905090810190601f168015620001e75780820380516001836020036101000a031916815260200191505b50838103825284518152845160209182019186019080838360005b838110156200021c57818101518382015260200162000202565b50505050905090810190601f1680156200024a5780820380516001836020036101000a031916815260200191505b50965050505050505060405180910390a1620002a7565b604080516000808252602082018190526080828401819052820181905260c060608301819052820152905160008051602062000c77833981519152918190036101000190a15b50505050565b828054600181600116156101000203166002900490600052602060002090601f016020900481019282601f10620002f057805160ff191683800117855562000320565b8280016001018555821562000320579182015b828111156200032057825182559160200191906001019062000303565b506200032e92915062000332565b5090565b6200034f91905b808211156200032e576000815560010162000339565b90565b61091580620003626000396000f3fe6080604052600436106100615763ffffffff7c01000000000000000000000000000000000000000000000000000000006000350416632816017d811461006657806333ab3393146101a95780634d3fdae9146101d357806350b492ba146101fa575b600080fd5b34801561007257600080fd5b506101a76004803603606081101561008957600080fd5b813591908101906040810160208201356401000000008111156100ab57600080fd5b8201836020820111156100bd57600080fd5b803590602001918460018302840111640100000000831117156100df57600080fd5b91908080601f016020809104026020016040519081016040528093929190818152602001838380828437600092019190915250929594936020810193503591505064010000000081111561013257600080fd5b82018360208201111561014457600080fd5b8035906020019184600183028401116401000000008311171561016657600080fd5b91908080601f016020809104026020016040519081016040528093929190818152602001838380828437600092019190915250929550610309945050505050565b005b3480156101b557600080fd5b506101a7600480360360208110156101cc57600080fd5b5035610525565b3480156101df57600080fd5b506101e8610710565b60408051918252519081900360200190f35b34801561020657600080fd5b506102246004803603602081101561021d57600080fd5b5035610716565b604051808481526020018060200180602001838103835285818151815260200191508051906020019080838360005b8381101561026b578181015183820152602001610253565b50505050905090810190601f1680156102985780820380516001836020036101000a031916815260200191505b50838103825284518152845160209182019186019080838360005b838110156102cb5781810151838201526020016102b3565b50505050905090810190601f1680156102f85780820380516001836020036101000a031916815260200191505b509550505050505060405180910390f35b600160005b600054811161033e57600081815260016020526040902054851415610336576000915061033e565b60010161030e565b5080156104c85760008054600190810180835560408051606081018252888152602080820189815282840189905293865284815291909420845181559151805192936103929390850192919091019061084e565b50604082015180516103ae91600284019160209091019061084e565b509050507f207679f58e9b1cb9994d050b1560a214c7c2b75b206f512b91bc3429c9dc00e06001858585604051808581526020018481526020018060200180602001838103835285818151815260200191508051906020019080838360005b8381101561042557818101518382015260200161040d565b50505050905090810190601f1680156104525780820380516001836020036101000a031916815260200191505b50838103825284518152845160209182019186019080838360005b8381101561048557818101518382015260200161046d565b50505050905090810190601f1680156104b25780820380516001836020036101000a031916815260200191505b50965050505050505060405180910390a161051f565b604080516000808252602082018190526080828401819052820181905260c06060830181905282015290517f207679f58e9b1cb9994d050b1560a214c7c2b75b206f512b91bc3429c9dc00e0918190036101000190a15b50505050565b6000805b6000548111610559576000818152600160205260409020548314156105515760019150610559565b600101610529565b81156106b45760008181526001602081815260409283902080548451848152928301819052608094830185815282850180546002600019610100838a161502019091168190049786018890527fd29cbe826f74ea20d95af48bb0dc6db02d85f7c1f31110c078678a47d9a376c497939591940192909190606083019060a0840190869080156106295780601f106105fe57610100808354040283529160200191610629565b820191906000526020600020905b81548152906001019060200180831161060c57829003601f168201915b505083810382528454600260001961010060018416150201909116048082526020909101908590801561069d5780601f106106725761010080835404028352916020019161069d565b820191906000526020600020905b81548152906001019060200180831161068057829003601f168201915b5050965050505050505060405180910390a161070b565b604080516000808252602082018190526080828401819052820181905260c06060830181905282015290517fd29cbe826f74ea20d95af48bb0dc6db02d85f7c1f31110c078678a47d9a376c4918190036101000190a15b505050565b60005481565b600160208181526000928352604092839020805481840180548651600296821615610100026000190190911695909504601f810185900485028601850190965285855290949193929091908301828280156107b25780601f10610787576101008083540402835291602001916107b2565b820191906000526020600020905b81548152906001019060200180831161079557829003601f168201915b50505060028085018054604080516020601f60001961010060018716150201909416959095049283018590048502810185019091528181529596959450909250908301828280156108445780601f1061081957610100808354040283529160200191610844565b820191906000526020600020905b81548152906001019060200180831161082757829003601f168201915b5050505050905083565b828054600181600116156101000203166002900490600052602060002090601f016020900481019282601f1061088f57805160ff19168380011785556108bc565b828001600101855582156108bc579182015b828111156108bc5782518255916020019190600101906108a1565b506108c89291506108cc565b5090565b6108e691905b808211156108c857600081556001016108d2565b9056fea165627a7a72305820ec35a0d5d80a8daf41c34466bc5ed9f371d1ce99bb57f7f39a94eaa8ee10492f0029207679f58e9b1cb9994d050b1560a214c7c2b75b206f512b91bc3429c9dc00e0",
  "source": "pragma solidity ^0.5.0;\r\n\r\ncontract DistributorData {\r\n    uint public distCount = 0;\r\n\r\n    struct Distributor {\r\n        uint id;\r\n        string name;\r\n        string vaccineName;\r\n    }\r\n\r\n    mapping(uint => Distributor) public distributors;\r\n\r\n    constructor() public {\r\n        AddDistributor(0, 'genesis', 'N/A');\r\n    }\r\n\r\n    event DistributorAdded (\r\n        uint success,\r\n        uint id,\r\n        string name,\r\n        string vaccineName\r\n    );\r\n\r\n    function AddDistributor(uint _id, string memory _name, string memory _vaccineName) public {\r\n        bool proceed = true;\r\n        for(uint i = 0; i <= distCount; i++) {\r\n            if(_id == distributors[i].id) {\r\n                proceed = false;\r\n                break;\r\n            }\r\n        }\r\n        if(proceed) {\r\n            distCount ++;\r\n            distributors[distCount] = Distributor(_id, _name, _vaccineName);\r\n            emit DistributorAdded(1, _id, _name, _vaccineName);\r\n        }\r\n        else\r\n            emit DistributorAdded(0, 0, '', '');\r\n    }\r\n\r\n    event ThrowDistributorData (\r\n        uint success,\r\n        uint id,\r\n        string name,\r\n        string vaccineName\r\n    );\r\n\r\n    function GetDistributorData(uint _id) public {\r\n        bool proceed = false;\r\n        uint i = 0;\r\n        for(i = 0; i <= distCount; i++) {\r\n            if(_id == distributors[i].id) {\r\n                proceed = true;\r\n                break;\r\n            }\r\n        }\r\n        if(proceed)\r\n            emit ThrowDistributorData(1, distributors[i].id, distributors[i].name, distributors[i].vaccineName);\r\n        else\r\n            emit ThrowDistributorData(0, 0, '', '');\r\n    }\r\n}",
  "sourcePath": "C:/Users/kshit/Desktop/Vaccine-monitoring-system/contracts/DistributorData.sol",
  "compiler": {
    "name": "solc",
    "version": "0.5.0+commit.1d4f565a.Emscripten.clang"
  },
  "schemaVersion": "3.0.1",
  "updatedAt": "2021-01-06T18:56:52.989Z",
  "devdoc": {
    "methods": {}
  },
  "userdoc": {
    "methods": {}
  }
}