{
  "contractName": "DistributorData",
  "abi": [
    {
      "constant": true,
      "inputs": [],
      "name": "distCount",
      "outputs": [
        {
          "name": "",
          "type": "uint256"
        }
      ],
      "payable": false,
      "stateMutability": "view",
      "type": "function",
      "signature": "0x4d3fdae9"
    },
    {
      "constant": true,
      "inputs": [
        {
          "name": "",
          "type": "uint256"
        }
      ],
      "name": "distributors",
      "outputs": [
        {
          "name": "index",
          "type": "uint256"
        },
        {
          "name": "id",
          "type": "uint256"
        },
        {
          "name": "name",
          "type": "string"
        },
        {
          "name": "vaccineName",
          "type": "string"
        }
      ],
      "payable": false,
      "stateMutability": "view",
      "type": "function",
      "signature": "0x50b492ba"
    },
    {
      "inputs": [],
      "payable": false,
      "stateMutability": "nonpayable",
      "type": "constructor",
      "signature": "constructor"
    },
    {
      "anonymous": false,
      "inputs": [
        {
          "indexed": false,
          "name": "success",
          "type": "uint256"
        },
        {
          "indexed": false,
          "name": "id",
          "type": "uint256"
        },
        {
          "indexed": false,
          "name": "name",
          "type": "string"
        },
        {
          "indexed": false,
          "name": "vaccineName",
          "type": "string"
        }
      ],
      "name": "DistributorAdded",
      "type": "event",
      "signature": "0x207679f58e9b1cb9994d050b1560a214c7c2b75b206f512b91bc3429c9dc00e0"
    },
    {
      "anonymous": false,
      "inputs": [
        {
          "indexed": false,
          "name": "success",
          "type": "uint256"
        },
        {
          "indexed": false,
          "name": "id",
          "type": "uint256"
        },
        {
          "indexed": false,
          "name": "name",
          "type": "string"
        },
        {
          "indexed": false,
          "name": "vaccineName",
          "type": "string"
        }
      ],
      "name": "ThrowDistributorData",
      "type": "event",
      "signature": "0xd29cbe826f74ea20d95af48bb0dc6db02d85f7c1f31110c078678a47d9a376c4"
    },
    {
      "constant": false,
      "inputs": [
        {
          "name": "_id",
          "type": "uint256"
        },
        {
          "name": "_name",
          "type": "string"
        },
        {
          "name": "_vaccineName",
          "type": "string"
        }
      ],
      "name": "AddDistributor",
      "outputs": [],
      "payable": false,
      "stateMutability": "nonpayable",
      "type": "function",
      "signature": "0x2816017d"
    },
    {
      "constant": false,
      "inputs": [
        {
          "name": "_id",
          "type": "uint256"
        }
      ],
      "name": "GetDistributorData",
      "outputs": [],
      "payable": false,
      "stateMutability": "nonpayable",
      "type": "function",
      "signature": "0x33ab3393"
    },
    {
      "constant": false,
      "inputs": [
        {
          "name": "_index",
          "type": "uint256"
        }
      ],
      "name": "GetDistributorThroughIndex",
      "outputs": [],
      "payable": false,
      "stateMutability": "nonpayable",
      "type": "function",
      "signature": "0xb20e8ac2"
    }
  ],
  "bytecode": "0x6080604052600080553480156200001557600080fd5b506200009d60006040805190810160405280600781526020017f67656e65736973000000000000000000000000000000000000000000000000008152506040805190810160405280600381526020017f4e2f410000000000000000000000000000000000000000000000000000000000815250620004db640100000000026401000000009004565b6200012460016040805190810160405280601281526020017f53756e20506861726d61636575746963616c00000000000000000000000000008152506040805190810160405280600781526020017f5661635361666500000000000000000000000000000000000000000000000000815250620004db640100000000026401000000009004565b620001ab60026040805190810160405280600e81526020017f4268617261742042696f746563680000000000000000000000000000000000008152506040805190810160405280600781526020017f4e6f566972757300000000000000000000000000000000000000000000000000815250620004db640100000000026401000000009004565b6200023260036040805190810160405280600f81526020017f536572756d20496e7374697475746500000000000000000000000000000000008152506040805190810160405280600a81526020017f436f7669536869656c6400000000000000000000000000000000000000000000815250620004db640100000000026401000000009004565b620002b960046040805190810160405280600c81526020017f5a7964757320436164696c6100000000000000000000000000000000000000008152506040805190810160405280600881526020017f476f436f726f6e61000000000000000000000000000000000000000000000000815250620004db640100000000026401000000009004565b6200034060056040805190810160405280600e81526020017f50616e616365612042696f7465630000000000000000000000000000000000008152506040805190810160405280600881526020017f436f726f6e61476f000000000000000000000000000000000000000000000000815250620004db640100000000026401000000009004565b620003c760066040805190810160405280601581526020017f496e6469616e20496d6d756e6f6c6f676963616c7300000000000000000000008152506040805190810160405280600781526020017f436f766178696e00000000000000000000000000000000000000000000000000815250620004db640100000000026401000000009004565b6200044e60076040805190810160405280600681526020017f4d796e76617800000000000000000000000000000000000000000000000000008152506040805190810160405280600681526020017f566178436f760000000000000000000000000000000000000000000000000000815250620004db640100000000026401000000009004565b620004d560086040805190810160405280600c81526020017f42696f6c6f676963616c204500000000000000000000000000000000000000008152506040805190810160405280600881526020017f4e6f436f726f6e61000000000000000000000000000000000000000000000000815250620004db640100000000026401000000009004565b6200079e565b600160005b60005481116200051857600081815260016020819052604090912001548514156200050f576000915062000518565b600101620004e0565b508015620006ad576000805460019081018083556040805160808101825282815260208082018a81528284018a8152606084018a9052948752858252929095208151815591519382019390935590518051929391926200057f9260028501920190620006f9565b50606082015180516200059d916003840191602090910190620006f9565b50905050600080516020620012ca8339815191526001858585604051808581526020018481526020018060200180602001838103835285818151815260200191508051906020019080838360005b8381101562000605578181015183820152602001620005eb565b50505050905090810190601f168015620006335780820380516001836020036101000a031916815260200191505b50838103825284518152845160209182019186019080838360005b83811015620006685781810151838201526020016200064e565b50505050905090810190601f168015620006965780820380516001836020036101000a031916815260200191505b50965050505050505060405180910390a1620006f3565b604080516000808252602082018190526080828401819052820181905260c0606083018190528201529051600080516020620012ca833981519152918190036101000190a15b50505050565b828054600181600116156101000203166002900490600052602060002090601f016020900481019282601f106200073c57805160ff19168380011785556200076c565b828001600101855582156200076c579182015b828111156200076c5782518255916020019190600101906200074f565b506200077a9291506200077e565b5090565b6200079b91905b808211156200077a576000815560010162000785565b90565b610b1c80620007ae6000396000f3fe60806040526004361061006c5763ffffffff7c01000000000000000000000000000000000000000000000000000000006000350416632816017d811461007157806333ab3393146101b45780634d3fdae9146101de57806350b492ba14610205578063b20e8ac21461031b575b600080fd5b34801561007d57600080fd5b506101b26004803603606081101561009457600080fd5b813591908101906040810160208201356401000000008111156100b657600080fd5b8201836020820111156100c857600080fd5b803590602001918460018302840111640100000000831117156100ea57600080fd5b91908080601f016020809104026020016040519081016040528093929190818152602001838380828437600092019190915250929594936020810193503591505064010000000081111561013d57600080fd5b82018360208201111561014f57600080fd5b8035906020019184600183028401116401000000008311171561017157600080fd5b91908080601f016020809104026020016040519081016040528093929190818152602001838380828437600092019190915250929550610345945050505050565b005b3480156101c057600080fd5b506101b2600480360360208110156101d757600080fd5b5035610575565b3480156101ea57600080fd5b506101f3610743565b60408051918252519081900360200190f35b34801561021157600080fd5b5061022f6004803603602081101561022857600080fd5b5035610749565b604051808581526020018481526020018060200180602001838103835285818151815260200191508051906020019080838360005b8381101561027c578181015183820152602001610264565b50505050905090810190601f1680156102a95780820380516001836020036101000a031916815260200191505b50838103825284518152845160209182019186019080838360005b838110156102dc5781810151838201526020016102c4565b50505050905090810190601f1680156103095780820380516001836020036101000a031916815260200191505b50965050505050505060405180910390f35b34801561032757600080fd5b506101b26004803603602081101561033e57600080fd5b503561089b565b600160005b600054811161037e5760008181526001602081905260409091200154851415610376576000915061037e565b60010161034a565b508015610518576000805460019081018083556040805160808101825282815260208082018a81528284018a8152606084018a9052948752858252929095208151815591519382019390935590518051929391926103e29260028501920190610a35565b50606082015180516103fe916003840191602090910190610a35565b509050507f207679f58e9b1cb9994d050b1560a214c7c2b75b206f512b91bc3429c9dc00e06001858585604051808581526020018481526020018060200180602001838103835285818151815260200191508051906020019080838360005b8381101561047557818101518382015260200161045d565b50505050905090810190601f1680156104a25780820380516001836020036101000a031916815260200191505b50838103825284518152845160209182019186019080838360005b838110156104d55781810151838201526020016104bd565b50505050905090810190601f1680156105025780820380516001836020036101000a031916815260200191505b50965050505050505060405180910390a161056f565b604080516000808252602082018190526080828401819052820181905260c06060830181905282015290517f207679f58e9b1cb9994d050b1560a214c7c2b75b206f512b91bc3429c9dc00e0918190036101000190a15b50505050565b6000805b60005481116105ad57600081815260016020819052604090912001548314156105a557600191506105ad565b600101610579565b81156106f957600081815260016020818152604092839020808301548451848152928301819052608094830185815260028084018054600019610100828a161502011691909104968501879052600080516020610ad1833981519152969294909360030192909190606083019060a08401908690801561066e5780601f106106435761010080835404028352916020019161066e565b820191906000526020600020905b81548152906001019060200180831161065157829003601f168201915b50508381038252845460026000196101006001841615020190911604808252602090910190859080156106e25780601f106106b7576101008083540402835291602001916106e2565b820191906000526020600020905b8154815290600101906020018083116106c557829003601f168201915b5050965050505050505060405180910390a161073e565b604080516000808252602082018190526080828401819052820181905260c0606083018190528201529051600080516020610ad1833981519152918190036101000190a15b505050565b60005481565b6001602052806000526040600020600091509050806000015490806001015490806002018054600181600116156101000203166002900480601f0160208091040260200160405190810160405280929190818152602001828054600181600116156101000203166002900480156108015780601f106107d657610100808354040283529160200191610801565b820191906000526020600020905b8154815290600101906020018083116107e457829003601f168201915b5050505060038301805460408051602060026001851615610100026000190190941693909304601f81018490048402820184019092528181529495949350908301828280156108915780601f1061086657610100808354040283529160200191610891565b820191906000526020600020905b81548152906001019060200180831161087457829003601f168201915b5050505050905084565b600054819081116109ec57600081815260016020818152604092839020808301548451848152928301819052608094830185815260028084018054600019610100828a161502011691909104968501879052600080516020610ad1833981519152969294909360030192909190606083019060a0840190869080156109615780601f1061093657610100808354040283529160200191610961565b820191906000526020600020905b81548152906001019060200180831161094457829003601f168201915b50508381038252845460026000196101006001841615020190911604808252602090910190859080156109d55780601f106109aa576101008083540402835291602001916109d5565b820191906000526020600020905b8154815290600101906020018083116109b857829003601f168201915b5050965050505050505060405180910390a1610a31565b604080516000808252602082018190526080828401819052820181905260c0606083018190528201529051600080516020610ad1833981519152918190036101000190a15b5050565b828054600181600116156101000203166002900490600052602060002090601f016020900481019282601f10610a7657805160ff1916838001178555610aa3565b82800160010185558215610aa3579182015b82811115610aa3578251825591602001919060010190610a88565b50610aaf929150610ab3565b5090565b610acd91905b80821115610aaf5760008155600101610ab9565b9056fed29cbe826f74ea20d95af48bb0dc6db02d85f7c1f31110c078678a47d9a376c4a165627a7a72305820b3f0eabf6a429cdfe3b06dc9145c4bca0fc4037ce3026ab2fc25284a170e1a1c0029207679f58e9b1cb9994d050b1560a214c7c2b75b206f512b91bc3429c9dc00e0",
  "source": "pragma solidity ^0.5.0;\r\n\r\ncontract DistributorData {\r\n    uint public distCount = 0;\r\n\r\n    struct Distributor {\r\n        uint index;\r\n        uint id;\r\n        string name;\r\n        string vaccineName;\r\n    }\r\n\r\n    mapping(uint => Distributor) public distributors;\r\n\r\n    constructor() public {\r\n        AddDistributor(0, 'genesis', 'N/A');\r\n        AddDistributor(1, 'Sun Pharmaceutical', 'VacSafe');\r\n        AddDistributor(2, 'Bharat Biotech', 'NoVirus');\r\n        AddDistributor(3, 'Serum Institute', 'CoviShield');\r\n        AddDistributor(4, 'Zydus Cadila', 'GoCorona');\r\n        AddDistributor(5, 'Panacea Biotec', 'CoronaGo');\r\n        AddDistributor(6, 'Indian Immunologicals', 'Covaxin');\r\n        AddDistributor(7, 'Mynvax', 'VaxCov');\r\n        AddDistributor(8, 'Biological E', 'NoCorona');\r\n    }\r\n\r\n    event DistributorAdded (\r\n        uint success,\r\n        uint id,\r\n        string name,\r\n        string vaccineName\r\n    );\r\n\r\n    function AddDistributor(uint _id, string memory _name, string memory _vaccineName) public {\r\n        bool proceed = true;\r\n        for(uint i = 0; i <= distCount; i++) {\r\n            if(_id == distributors[i].id) {\r\n                proceed = false;\r\n                break;\r\n            }\r\n        }\r\n        if(proceed) {\r\n            distCount ++;\r\n            distributors[distCount] = Distributor(distCount, _id, _name, _vaccineName);\r\n            emit DistributorAdded(1, _id, _name, _vaccineName);\r\n        }\r\n        else\r\n            emit DistributorAdded(0, 0, '', '');\r\n    }\r\n\r\n    event ThrowDistributorData (\r\n        uint success,\r\n        uint id,\r\n        string name,\r\n        string vaccineName\r\n    );\r\n\r\n    function GetDistributorData(uint _id) public {\r\n        bool proceed = false;\r\n        uint i = 0;\r\n        for(i = 0; i <= distCount; i++) {\r\n            if(_id == distributors[i].id) {\r\n                proceed = true;\r\n                break;\r\n            }\r\n        }\r\n        if(proceed)\r\n            emit ThrowDistributorData(1, distributors[i].id, distributors[i].name, distributors[i].vaccineName);\r\n        else\r\n            emit ThrowDistributorData(0, 0, '', '');\r\n    }\r\n\r\n    function GetDistributorThroughIndex(uint _index) public  {\r\n        uint i = _index;\r\n        if(distCount >= _index )\r\n            emit ThrowDistributorData(1, distributors[i].id, distributors[i].name, distributors[i].vaccineName);\r\n        else\r\n            emit ThrowDistributorData(0, 0, '', '');\r\n    }\r\n}",
  "sourcePath": "C:/Users/kshit/Desktop/Vaccine-monitoring-system/contracts/DistributorData.sol",
  "compiler": {
    "name": "solc",
    "version": "0.5.0+commit.1d4f565a.Emscripten.clang"
  },
  "schemaVersion": "3.0.1",
  "updatedAt": "2021-01-20T09:50:14.705Z",
  "devdoc": {
    "methods": {}
  },
  "userdoc": {
    "methods": {}
  }
}