{
  "contractName": "VaccineData",
  "abi": [
    {
      "constant": true,
      "inputs": [
        {
          "name": "",
          "type": "uint256"
        }
      ],
      "name": "vaccines",
      "outputs": [
        {
          "name": "id",
          "type": "uint256"
        },
        {
          "name": "vaccineName",
          "type": "string"
        },
        {
          "name": "distributorName",
          "type": "string"
        },
        {
          "name": "transporter",
          "type": "uint256"
        },
        {
          "name": "temp",
          "type": "int256"
        },
        {
          "name": "loc",
          "type": "string"
        },
        {
          "name": "consumed",
          "type": "bool"
        },
        {
          "name": "consumedBy",
          "type": "uint256"
        }
      ],
      "payable": false,
      "stateMutability": "view",
      "type": "function",
      "signature": "0x300e88bd"
    },
    {
      "constant": true,
      "inputs": [],
      "name": "vaccineCount",
      "outputs": [
        {
          "name": "",
          "type": "uint256"
        }
      ],
      "payable": false,
      "stateMutability": "view",
      "type": "function",
      "signature": "0xdcb7b1b7"
    },
    {
      "constant": true,
      "inputs": [],
      "name": "getStatus",
      "outputs": [
        {
          "name": "",
          "type": "bool"
        }
      ],
      "payable": false,
      "stateMutability": "view",
      "type": "function",
      "signature": "0x4e69d560"
    },
    {
      "constant": false,
      "inputs": [
        {
          "name": "_id",
          "type": "uint256"
        },
        {
          "name": "_temp",
          "type": "int256"
        },
        {
          "name": "_loc",
          "type": "string"
        }
      ],
      "name": "UpdateIotData",
      "outputs": [],
      "payable": false,
      "stateMutability": "nonpayable",
      "type": "function",
      "signature": "0x6fac8830"
    },
    {
      "constant": false,
      "inputs": [
        {
          "name": "_id",
          "type": "uint256"
        },
        {
          "name": "_vaccineName",
          "type": "string"
        },
        {
          "name": "_distributorName",
          "type": "string"
        },
        {
          "name": "_transporter",
          "type": "uint256"
        }
      ],
      "name": "AddVaccine",
      "outputs": [],
      "payable": false,
      "stateMutability": "nonpayable",
      "type": "function",
      "signature": "0xf0f21816"
    },
    {
      "constant": false,
      "inputs": [
        {
          "name": "_id",
          "type": "uint256"
        },
        {
          "name": "_aId",
          "type": "uint256"
        }
      ],
      "name": "ConsumeVaccine",
      "outputs": [],
      "payable": false,
      "stateMutability": "nonpayable",
      "type": "function",
      "signature": "0xdb983942"
    }
  ],
  "bytecode": "0x6080604052600080556001805460ff19168117905534801561002057600080fd5b50610eca806100306000396000f3fe6080604052600436106100775763ffffffff7c0100000000000000000000000000000000000000000000000000000000600035041663300e88bd811461007c5780634e69d560146102115780636fac88301461023a578063db983942146102fb578063dcb7b1b71461032b578063f0f2181614610352575b600080fd5b34801561008857600080fd5b506100a66004803603602081101561009f57600080fd5b5035610495565b604051808981526020018060200180602001888152602001878152602001806020018615151515815260200185815260200184810384528b818151815260200191508051906020019080838360005b8381101561010d5781810151838201526020016100f5565b50505050905090810190601f16801561013a5780820380516001836020036101000a031916815260200191505b5084810383528a5181528a516020918201918c019080838360005b8381101561016d578181015183820152602001610155565b50505050905090810190601f16801561019a5780820380516001836020036101000a031916815260200191505b50848103825287518152875160209182019189019080838360005b838110156101cd5781810151838201526020016101b5565b50505050905090810190601f1680156101fa5780820380516001836020036101000a031916815260200191505b509b50505050505050505050505060405180910390f35b34801561021d57600080fd5b50610226610686565b604080519115158252519081900360200190f35b34801561024657600080fd5b506102f96004803603606081101561025d57600080fd5b81359160208101359181019060608101604082013564010000000081111561028457600080fd5b82018360208201111561029657600080fd5b803590602001918460018302840111640100000000831117156102b857600080fd5b91908080601f016020809104026020016040519081016040528093929190818152602001838380828437600092019190915250929550610690945050505050565b005b34801561030757600080fd5b506102f96004803603604081101561031e57600080fd5b50803590602001356109ba565b34801561033757600080fd5b50610340610c4a565b60408051918252519081900360200190f35b34801561035e57600080fd5b506102f96004803603608081101561037557600080fd5b8135919081019060408101602082013564010000000081111561039757600080fd5b8201836020820111156103a957600080fd5b803590602001918460018302840111640100000000831117156103cb57600080fd5b91908080601f016020809104026020016040519081016040528093929190818152602001838380828437600092019190915250929594936020810193503591505064010000000081111561041e57600080fd5b82018360208201111561043057600080fd5b8035906020019184600183028401116401000000008311171561045257600080fd5b91908080601f0160208091040260200160405190810160405280939291908181526020018383808284376000920191909152509295505091359250610c50915050565b60026020818152600092835260409283902080546001808301805487519281161561010002600019011695909504601f81018590048502820185019096528581529094919390929091908301828280156105305780601f1061050557610100808354040283529160200191610530565b820191906000526020600020905b81548152906001019060200180831161051357829003601f168201915b50505060028085018054604080516020601f60001961010060018716150201909416959095049283018590048502810185019091528181529596959450909250908301828280156105c25780601f10610597576101008083540402835291602001916105c2565b820191906000526020600020905b8154815290600101906020018083116105a557829003601f168201915b505050505090806003015490806004015490806005018054600181600116156101000203166002900480601f01602080910402602001604051908101604052809291908181526020018280546001816001161561010002031660029004801561066c5780601f106106415761010080835404028352916020019161066c565b820191906000526020600020905b81548152906001019060200180831161064f57829003601f168201915b505050506006830154600790930154919260ff1691905088565b60015460ff165b90565b600060015b60005481116106c5576000818152600260205260409020548514156106bd57600191506106c5565b600101610695565b5080156109a9576106d4610dbe565b6000858152600260208181526040928390208351610100808201865282548252600180840180548851928116159093026000190190921695909504601f8101859004850286018501909652858552909491938584019390929083018282801561077e5780601f106107535761010080835404028352916020019161077e565b820191906000526020600020905b81548152906001019060200180831161076157829003601f168201915b5050509183525050600282810180546040805160206001841615610100026000190190931694909404601f810183900483028501830190915280845293810193908301828280156108105780601f106107e557610100808354040283529160200191610810565b820191906000526020600020905b8154815290600101906020018083116107f357829003601f168201915b505050505081526020016003820154815260200160048201548152602001600582018054600181600116156101000203166002900480601f0160208091040260200160405190810160405280929190818152602001828054600181600116156101000203166002900480156108c65780601f1061089b576101008083540402835291602001916108c6565b820191906000526020600020905b8154815290600101906020018083116108a957829003601f168201915b5050509183525050600682015460ff1615156020808301919091526007909201546040918201526080830187905260a0830186905260008881526002835220825181558282015180519394508493919261092892600185019290910190610e06565b5060408201518051610944916002840191602090910190610e06565b50606082015160038201556080820151600482015560a08201518051610974916005840191602090910190610e06565b5060c082015160068201805491151560ff1992831617905560e0909201516007909101556001805490911681179055506109b4565b6001805460ff191690555b50505050565b600060015b60005481116109ef576000818152600260205260409020548414156109e757600191506109ef565b6001016109bf565b81156109a9576109fd610dbe565b6000828152600260208181526040928390208351610100808201865282548252600180840180548851928116159093026000190190921695909504601f81018590048502860185019096528585529094919385840193909290830182828015610aa75780601f10610a7c57610100808354040283529160200191610aa7565b820191906000526020600020905b815481529060010190602001808311610a8a57829003601f168201915b5050509183525050600282810180546040805160206001841615610100026000190190931694909404601f81018390048302850183019091528084529381019390830182828015610b395780601f10610b0e57610100808354040283529160200191610b39565b820191906000526020600020905b815481529060010190602001808311610b1c57829003601f168201915b505050505081526020016003820154815260200160048201548152602001600582018054600181600116156101000203166002900480601f016020809104026020016040519081016040528092919081815260200182805460018160011615610100020316600290048015610bef5780601f10610bc457610100808354040283529160200191610bef565b820191906000526020600020905b815481529060010190602001808311610bd257829003601f168201915b5050509183525050600682015460ff16151560208083019190915260079092015460409182015260e0830187905260008581526002835220825181558282015180519394508493919261092892600185019290910190610e06565b60005481565b600160005b6000548111610c8557600081815260026020526040902054861415610c7d5760009150610c85565b600101610c55565b508015610dac57600080546001908101808355604080516101008101825289815260208082018a81528284018a9052606083018990526064608084015283518085018552600381527f4e2f4100000000000000000000000000000000000000000000000000000000008184015260a084015260c0830187905260e08301879052938652600281529190942084518155915180519293610d2c93908501929190910190610e06565b5060408201518051610d48916002840191602090910190610e06565b50606082015160038201556080820151600482015560a08201518051610d78916005840191602090910190610e06565b5060c082015160068201805491151560ff1992831617905560e0909201516007909101556001805490911681179055610db7565b6001805460ff191690555b5050505050565b61010060405190810160405280600081526020016060815260200160608152602001600081526020016000815260200160608152602001600015158152602001600081525090565b828054600181600116156101000203166002900490600052602060002090601f016020900481019282601f10610e4757805160ff1916838001178555610e74565b82800160010185558215610e74579182015b82811115610e74578251825591602001919060010190610e59565b50610e80929150610e84565b5090565b61068d91905b80821115610e805760008155600101610e8a56fea165627a7a7230582001a4fa63c71912c14be42498b6b3b5895038bddfc3d079371fddea0393984e280029",
  "source": "pragma solidity ^0.5.0;\r\n\r\ncontract VaccineData {\r\n    uint public vaccineCount = 0;\r\n    bool success = true;\r\n\r\n    struct Vaccine {\r\n        uint id;\r\n        string vaccineName;\r\n        string distributorName;\r\n        uint transporter;\r\n        int temp;\r\n        string loc;\r\n        bool consumed;\r\n        uint consumedBy;\r\n    }\r\n\r\n    function getStatus() view public returns (bool) {\r\n        return success;\r\n    }\r\n\r\n    mapping(uint => Vaccine) public vaccines;\r\n\r\n    function UpdateIotData(uint _id, int _temp, string memory _loc) public {\r\n        bool present = false;\r\n        for(uint i = 1;i<=vaccineCount;i++) {\r\n            if(_id == vaccines[i].id) {\r\n                present = true;\r\n                break;\r\n            }\r\n        }\r\n\r\n        if(present) {\r\n            Vaccine memory _vaccine = vaccines[_id];\r\n            _vaccine.temp = _temp;\r\n            _vaccine.loc = _loc;\r\n            vaccines[_id] = _vaccine;\r\n            success = true;\r\n        }\r\n        else\r\n            success = false;\r\n    }\r\n\r\n    function AddVaccine(uint _id, string memory _vaccineName, string memory _distributorName, uint _transporter) public {\r\n        bool proceed = true;\r\n        for(uint i = 0; i <= vaccineCount; i++) {\r\n            if(_id == vaccines[i].id) {\r\n                proceed = false;\r\n                break;\r\n            }\r\n        }\r\n        \r\n        if(proceed) {\r\n            vaccineCount ++;\r\n            vaccines[vaccineCount] = Vaccine(_id, _vaccineName, _distributorName, _transporter, 100, 'N/A', false, 0);\r\n            success = true;\r\n        }\r\n        else\r\n            success = false;\r\n    }\r\n\r\n    function ConsumeVaccine(uint _id, uint _aId) public {\r\n        bool present = false;\r\n        uint i = 1;\r\n\r\n        for(i = 1;i<=vaccineCount;i++) {\r\n            if(_id == vaccines[i].id) {\r\n                present = true;\r\n                break;\r\n            }\r\n        }\r\n\r\n        if(present) {\r\n            Vaccine memory _vaccine = vaccines[i];\r\n            _vaccine.consumedBy = _aId;\r\n            vaccines[i] = _vaccine;\r\n            success = true;\r\n        }\r\n        else\r\n            success = false;\r\n    }\r\n\r\n}",
  "sourcePath": "C:/Users/kshit/Desktop/Vaccine-monitoring-system/contracts/VaccineData.sol",
  "compiler": {
    "name": "solc",
    "version": "0.5.0+commit.1d4f565a.Emscripten.clang"
  },
  "schemaVersion": "3.0.1",
  "updatedAt": "2021-01-04T13:45:45.025Z",
  "devdoc": {
    "methods": {}
  },
  "userdoc": {
    "methods": {}
  }
}