{
  "contractName": "VaccineData",
  "abi": [
    {
      "constant": true,
      "inputs": [
        {
          "name": "",
          "type": "uint256"
        }
      ],
      "name": "vaccines",
      "outputs": [
        {
          "name": "id",
          "type": "uint256"
        },
        {
          "name": "vaccineName",
          "type": "string"
        },
        {
          "name": "distributorName",
          "type": "string"
        },
        {
          "name": "transporter",
          "type": "string"
        },
        {
          "name": "temp",
          "type": "int256"
        },
        {
          "name": "loc",
          "type": "string"
        },
        {
          "name": "consumed",
          "type": "bool"
        },
        {
          "name": "consumedBy",
          "type": "uint256"
        }
      ],
      "payable": false,
      "stateMutability": "view",
      "type": "function",
      "signature": "0x300e88bd"
    },
    {
      "constant": true,
      "inputs": [],
      "name": "vaccineCount",
      "outputs": [
        {
          "name": "",
          "type": "uint256"
        }
      ],
      "payable": false,
      "stateMutability": "view",
      "type": "function",
      "signature": "0xdcb7b1b7"
    },
    {
      "inputs": [],
      "payable": false,
      "stateMutability": "nonpayable",
      "type": "constructor",
      "signature": "constructor"
    },
    {
      "anonymous": false,
      "inputs": [
        {
          "indexed": false,
          "name": "success",
          "type": "uint256"
        },
        {
          "indexed": false,
          "name": "id",
          "type": "uint256"
        },
        {
          "indexed": false,
          "name": "temp",
          "type": "int256"
        },
        {
          "indexed": false,
          "name": "loc",
          "type": "string"
        }
      ],
      "name": "IotDataUpdated",
      "type": "event",
      "signature": "0x674974a81cc61803bfee8c89537605ad4bc008f4538ad8ee4ef28af7063f8637"
    },
    {
      "anonymous": false,
      "inputs": [
        {
          "indexed": false,
          "name": "success",
          "type": "uint256"
        },
        {
          "indexed": false,
          "name": "id",
          "type": "uint256"
        },
        {
          "indexed": false,
          "name": "vaccineName",
          "type": "string"
        },
        {
          "indexed": false,
          "name": "distributorName",
          "type": "string"
        },
        {
          "indexed": false,
          "name": "transporter",
          "type": "string"
        }
      ],
      "name": "VaccineAdded",
      "type": "event",
      "signature": "0xe4920f4721fb99b00841330d40252fdd48ecd369a306c4f2e4d3691ee7a88ad6"
    },
    {
      "anonymous": false,
      "inputs": [
        {
          "indexed": false,
          "name": "success",
          "type": "uint256"
        },
        {
          "indexed": false,
          "name": "consumedVaccine",
          "type": "uint256"
        },
        {
          "indexed": false,
          "name": "consumedBy",
          "type": "uint256"
        }
      ],
      "name": "VaccineConsumed",
      "type": "event",
      "signature": "0xc4f1bc5f0f1f4f7da4af0e2ff07a3bd50dcdc997b45a572b54a0f58c98e563a8"
    },
    {
      "anonymous": false,
      "inputs": [
        {
          "indexed": false,
          "name": "success",
          "type": "uint256"
        },
        {
          "indexed": false,
          "name": "id",
          "type": "uint256"
        },
        {
          "indexed": false,
          "name": "vaccineName",
          "type": "string"
        },
        {
          "indexed": false,
          "name": "distributorName",
          "type": "string"
        },
        {
          "indexed": false,
          "name": "transporter",
          "type": "string"
        },
        {
          "indexed": false,
          "name": "temp",
          "type": "int256"
        },
        {
          "indexed": false,
          "name": "loc",
          "type": "string"
        },
        {
          "indexed": false,
          "name": "consumed",
          "type": "bool"
        },
        {
          "indexed": false,
          "name": "consumedBy",
          "type": "uint256"
        }
      ],
      "name": "ThrowVaccineData",
      "type": "event",
      "signature": "0x48dd4ff22aed3466c8b231b6d32a13b0cf490339bb8878bad25812658535af32"
    },
    {
      "constant": false,
      "inputs": [
        {
          "name": "_id",
          "type": "uint256"
        },
        {
          "name": "_temp",
          "type": "int256"
        },
        {
          "name": "_loc",
          "type": "string"
        }
      ],
      "name": "UpdateIotData",
      "outputs": [],
      "payable": false,
      "stateMutability": "nonpayable",
      "type": "function",
      "signature": "0x6fac8830"
    },
    {
      "constant": false,
      "inputs": [
        {
          "name": "_id",
          "type": "uint256"
        },
        {
          "name": "_vaccineName",
          "type": "string"
        },
        {
          "name": "_distributorName",
          "type": "string"
        },
        {
          "name": "_transporter",
          "type": "string"
        }
      ],
      "name": "AddVaccine",
      "outputs": [],
      "payable": false,
      "stateMutability": "nonpayable",
      "type": "function",
      "signature": "0xd80bf737"
    },
    {
      "constant": false,
      "inputs": [
        {
          "name": "_id",
          "type": "uint256"
        },
        {
          "name": "_aId",
          "type": "uint256"
        }
      ],
      "name": "ConsumeVaccine",
      "outputs": [],
      "payable": false,
      "stateMutability": "nonpayable",
      "type": "function",
      "signature": "0xdb983942"
    },
    {
      "constant": false,
      "inputs": [
        {
          "name": "_id",
          "type": "uint256"
        }
      ],
      "name": "GetVaccineData",
      "outputs": [],
      "payable": false,
      "stateMutability": "nonpayable",
      "type": "function",
      "signature": "0xc9a9e26b"
    }
  ],
  "bytecode": "0x6080604052600080553480156200001557600080fd5b50620000d360006040805190810160405280600781526020017f67656e65736973000000000000000000000000000000000000000000000000008152506040805190810160405280600381526020017f4e2f4100000000000000000000000000000000000000000000000000000000008152506040805190810160405280600381526020017f4e2f410000000000000000000000000000000000000000000000000000000000815250620006c1640100000000026401000000009004565b6200019060016040805190810160405280600781526020017f56616353616665000000000000000000000000000000000000000000000000008152506040805190810160405280601281526020017f53756e20506861726d61636575746963616c00000000000000000000000000008152506040805190810160405280601281526020017f566163536166655472616e73706f727465720000000000000000000000000000815250620006c1640100000000026401000000009004565b6200024d60026040805190810160405280600781526020017f4e6f5669727573000000000000000000000000000000000000000000000000008152506040805190810160405280600e81526020017f4268617261742042696f746563680000000000000000000000000000000000008152506040805190810160405280601281526020017f4e6f56697275735472616e73706f727465720000000000000000000000000000815250620006c1640100000000026401000000009004565b6200030a60036040805190810160405280600a81526020017f436f7669536869656c64000000000000000000000000000000000000000000008152506040805190810160405280600f81526020017f536572756d20496e7374697475746500000000000000000000000000000000008152506040805190810160405280601581526020017f436f7669536869656c645472616e73706f727465720000000000000000000000815250620006c1640100000000026401000000009004565b620003c760046040805190810160405280600881526020017f476f436f726f6e610000000000000000000000000000000000000000000000008152506040805190810160405280600c81526020017f5a7964757320436164696c6100000000000000000000000000000000000000008152506040805190810160405280601381526020017f476f436f726f6e615472616e73706f7274657200000000000000000000000000815250620006c1640100000000026401000000009004565b6200048460056040805190810160405280600881526020017f436f726f6e61476f0000000000000000000000000000000000000000000000008152506040805190810160405280600e81526020017f50616e616365612042696f7465630000000000000000000000000000000000008152506040805190810160405280601381526020017f436f726f6e61476f5472616e73706f7274657200000000000000000000000000815250620006c1640100000000026401000000009004565b6200054160066040805190810160405280600781526020017f436f766178696e000000000000000000000000000000000000000000000000008152506040805190810160405280601581526020017f496e6469616e20496d6d756e6f6c6f676963616c7300000000000000000000008152506040805190810160405280601281526020017f436f766178696e5472616e73706f727465720000000000000000000000000000815250620006c1640100000000026401000000009004565b620005fe60076040805190810160405280600681526020017f566178436f7600000000000000000000000000000000000000000000000000008152506040805190810160405280600681526020017f4d796e76617800000000000000000000000000000000000000000000000000008152506040805190810160405280601181526020017f566178436f765472616e73706f72746572000000000000000000000000000000815250620006c1640100000000026401000000009004565b620006bb60086040805190810160405280600881526020017f4e6f436f726f6e610000000000000000000000000000000000000000000000008152506040805190810160405280600c81526020017f42696f6c6f676963616c204500000000000000000000000000000000000000008152506040805190810160405280601381526020017f4e6f436f726f6e615472616e73706f7274657200000000000000000000000000815250620006c1640100000000026401000000009004565b62000aac565b600160005b6000548111620006fa57600081815260016020526040902054861415620006f15760009150620006fa565b600101620006c6565b508015620009ab57600080546001908101808355604080516101008101825289815260208082018a81528284018a9052606083018990526064608084015283518085018552600381527f4e2f4100000000000000000000000000000000000000000000000000000000008184015260a084015260c0830187905260e083018790529386528481529190942084518155915180519293620007a39390850192919091019062000a07565b5060408201518051620007c191600284019160209091019062000a07565b5060608201518051620007df91600384019160209091019062000a07565b506080820151600482015560a082015180516200080791600584019160209091019062000a07565b5060c08201518160060160006101000a81548160ff02191690831515021790555060e082015181600701559050506000805160206200234d83398151915260018686868660405180868152602001858152602001806020018060200180602001848103845287818151815260200191508051906020019080838360005b838110156200089e57818101518382015260200162000884565b50505050905090810190601f168015620008cc5780820380516001836020036101000a031916815260200191505b50848103835286518152865160209182019188019080838360005b8381101562000901578181015183820152602001620008e7565b50505050905090810190601f1680156200092f5780820380516001836020036101000a031916815260200191505b50848103825285518152855160209182019187019080838360005b83811015620009645781810151838201526020016200094a565b50505050905090810190601f168015620009925780820380516001836020036101000a031916815260200191505b509850505050505050505060405180910390a162000a00565b6040805160008082526020820181905260a0828401819052820181905260e06060830181905282018190526101206080830181905282015290516000805160206200234d833981519152918190036101600190a15b5050505050565b828054600181600116156101000203166002900490600052602060002090601f016020900481019282601f1062000a4a57805160ff191683800117855562000a7a565b8280016001018555821562000a7a579182015b8281111562000a7a57825182559160200191906001019062000a5d565b5062000a8892915062000a8c565b5090565b62000aa991905b8082111562000a88576000815560010162000a93565b90565b6118918062000abc6000396000f3fe6080604052600436106100775763ffffffff7c0100000000000000000000000000000000000000000000000000000000600035041663300e88bd811461007c5780636fac883014610270578063c9a9e26b14610331578063d80bf7371461035b578063db98394214610523578063dcb7b1b714610553575b600080fd5b34801561008857600080fd5b506100a66004803603602081101561009f57600080fd5b503561057a565b60405180898152602001806020018060200180602001888152602001806020018715151515815260200186815260200185810385528c818151815260200191508051906020019080838360005b8381101561010b5781810151838201526020016100f3565b50505050905090810190601f1680156101385780820380516001836020036101000a031916815260200191505b5085810384528b5181528b516020918201918d019080838360005b8381101561016b578181015183820152602001610153565b50505050905090810190601f1680156101985780820380516001836020036101000a031916815260200191505b5085810383528a5181528a516020918201918c019080838360005b838110156101cb5781810151838201526020016101b3565b50505050905090810190601f1680156101f85780820380516001836020036101000a031916815260200191505b5085810382528851815288516020918201918a019080838360005b8381101561022b578181015183820152602001610213565b50505050905090810190601f1680156102585780820380516001836020036101000a031916815260200191505b509c5050505050505050505050505060405180910390f35b34801561027c57600080fd5b5061032f6004803603606081101561029357600080fd5b8135916020810135918101906060810160408201356401000000008111156102ba57600080fd5b8201836020820111156102cc57600080fd5b803590602001918460018302840111640100000000831117156102ee57600080fd5b91908080601f0160208091040260200160405190810160405280939291908181526020018383808284376000920191909152509295506107e9945050505050565b005b34801561033d57600080fd5b5061032f6004803603602081101561035457600080fd5b5035610c95565b34801561036757600080fd5b5061032f6004803603608081101561037e57600080fd5b813591908101906040810160208201356401000000008111156103a057600080fd5b8201836020820111156103b257600080fd5b803590602001918460018302840111640100000000831117156103d457600080fd5b91908080601f016020809104026020016040519081016040528093929190818152602001838380828437600092019190915250929594936020810193503591505064010000000081111561042757600080fd5b82018360208201111561043957600080fd5b8035906020019184600183028401116401000000008311171561045b57600080fd5b91908080601f01602080910402602001604051908101604052809392919081815260200183838082843760009201919091525092959493602081019350359150506401000000008111156104ae57600080fd5b8201836020820111156104c057600080fd5b803590602001918460018302840111640100000000831117156104e257600080fd5b91908080601f016020809104026020016040519081016040528093929190818152602001838380828437600092019190915250929550610fe9945050505050565b34801561052f57600080fd5b5061032f6004803603604081101561054657600080fd5b508035906020013561133a565b34801561055f57600080fd5b5061056861177c565b60408051918252519081900360200190f35b600160208181526000928352604092839020805481840180548651600296821615610100026000190190911695909504601f810185900485028601850190965285855290949193929091908301828280156106165780601f106105eb57610100808354040283529160200191610616565b820191906000526020600020905b8154815290600101906020018083116105f957829003601f168201915b50505060028085018054604080516020601f60001961010060018716150201909416959095049283018590048502810185019091528181529596959450909250908301828280156106a85780601f1061067d576101008083540402835291602001916106a8565b820191906000526020600020905b81548152906001019060200180831161068b57829003601f168201915b5050505060038301805460408051602060026001851615610100026000190190941693909304601f81018490048402820184019092528181529495949350908301828280156107385780601f1061070d57610100808354040283529160200191610738565b820191906000526020600020905b81548152906001019060200180831161071b57829003601f168201915b50505050600483015460058401805460408051602060026001851615610100026000190190941693909304601f810184900484028201840190925281815295969395939450908301828280156107cf5780601f106107a4576101008083540402835291602001916107cf565b820191906000526020600020905b8154815290600101906020018083116107b257829003601f168201915b505050506006830154600790930154919260ff1691905088565b600060015b600054811161081e57600081815260016020526040902054851415610816576001915061081e565b6001016107ee565b508015610c405761082d611782565b600085815260016020818152604092839020835161010080820186528254825282850180548751600297821615909302600019011695909504601f81018590048502820185019096528581529094919385840193919290918301828280156108d65780601f106108ab576101008083540402835291602001916108d6565b820191906000526020600020905b8154815290600101906020018083116108b957829003601f168201915b5050509183525050600282810180546040805160206001841615610100026000190190931694909404601f810183900483028501830190915280845293810193908301828280156109685780601f1061093d57610100808354040283529160200191610968565b820191906000526020600020905b81548152906001019060200180831161094b57829003601f168201915b505050918352505060038201805460408051602060026001851615610100026000190190941693909304601f81018490048402820184019092528181529382019392918301828280156109fc5780601f106109d1576101008083540402835291602001916109fc565b820191906000526020600020905b8154815290600101906020018083116109df57829003601f168201915b5050509183525050600482015460208083019190915260058301805460408051601f60026000196101006001871615020190941693909304928301859004850281018501825282815294019392830182828015610a9a5780601f10610a6f57610100808354040283529160200191610a9a565b820191906000526020600020905b815481529060010190602001808311610a7d57829003601f168201915b5050509183525050600682015460ff1615156020808301919091526007909201546040918201526080830187905260a08301869052600088815260018084529190208351815583830151805194955085949193610afc938501929101906117ca565b5060408201518051610b189160028401916020909101906117ca565b5060608201518051610b349160038401916020909101906117ca565b506080820151600482015560a08201518051610b5a9160058401916020909101906117ca565b5060c08201518160060160006101000a81548160ff02191690831515021790555060e082015181600701559050507f674974a81cc61803bfee8c89537605ad4bc008f4538ad8ee4ef28af7063f863760018686866040518085815260200184815260200183815260200180602001828103825283818151815260200191508051906020019080838360005b83811015610bfd578181015183820152602001610be5565b50505050905090810190601f168015610c2a5780820380516001836020036101000a031916815260200191505b509550505050505060405180910390a150610c8f565b6040805160008082526020820181905281830181905260806060830181905282015290517f674974a81cc61803bfee8c89537605ad4bc008f4538ad8ee4ef28af7063f86379181900360c00190a15b50505050565b600060015b6000548111610cca57600081815260016020526040902054831415610cc25760019150610cca565b600101610c9a565b8115610f57576000818152600160208181526040928390208054600482015460068301546007840154875187815295860184905260a0860183905260ff90911680151560e087015261010080870183905261012098870189815286890180546002818c161590940260001901168390049a89018b90527f48dd4ff22aed3466c8b231b6d32a13b0cf490339bb8878bad25812658535af329a96989097928301966003840196956005909401949392906060830190608084019060c08501906101408601908d908015610ddd5780601f10610db257610100808354040283529160200191610ddd565b820191906000526020600020905b815481529060010190602001808311610dc057829003601f168201915b505085810384528b54600260001961010060018416150201909116048082526020909101908c908015610e515780601f10610e2657610100808354040283529160200191610e51565b820191906000526020600020905b815481529060010190602001808311610e3457829003601f168201915b505085810383528a54600260001961010060018416150201909116048082526020909101908b908015610ec55780601f10610e9a57610100808354040283529160200191610ec5565b820191906000526020600020905b815481529060010190602001808311610ea857829003601f168201915b5050858103825288546002600019610100600184161502019091160480825260209091019089908015610f395780601f10610f0e57610100808354040283529160200191610f39565b820191906000526020600020905b815481529060010190602001808311610f1c57829003601f168201915b50509d505050505050505050505050505060405180910390a1610fe4565b6040805160008082526020820181905260a0820181905260e08201819052610100820181905261012082840181905282018190526101606060830181905282018190526101a06080830181905282018190526101e060c0830181905282015290517f48dd4ff22aed3466c8b231b6d32a13b0cf490339bb8878bad25812658535af32918190036102200190a15b505050565b600160005b600054811161101e57600081815260016020526040902054861415611016576000915061101e565b600101610fee565b5080156112cd57600080546001908101808355604080516101008101825289815260208082018a81528284018a9052606083018990526064608084015283518085018552600381527f4e2f4100000000000000000000000000000000000000000000000000000000008184015260a084015260c0830187905260e0830187905293865284815291909420845181559151805192936110c4939085019291909101906117ca565b50604082015180516110e09160028401916020909101906117ca565b50606082015180516110fc9160038401916020909101906117ca565b506080820151600482015560a082015180516111229160058401916020909101906117ca565b5060c08201518160060160006101000a81548160ff02191690831515021790555060e082015181600701559050507fe4920f4721fb99b00841330d40252fdd48ecd369a306c4f2e4d3691ee7a88ad660018686868660405180868152602001858152602001806020018060200180602001848103845287818151815260200191508051906020019080838360005b838110156111c85781810151838201526020016111b0565b50505050905090810190601f1680156111f55780820380516001836020036101000a031916815260200191505b50848103835286518152865160209182019188019080838360005b83811015611228578181015183820152602001611210565b50505050905090810190601f1680156112555780820380516001836020036101000a031916815260200191505b50848103825285518152855160209182019187019080838360005b83811015611288578181015183820152602001611270565b50505050905090810190601f1680156112b55780820380516001836020036101000a031916815260200191505b509850505050505050505060405180910390a1611333565b6040805160008082526020820181905260a0828401819052820181905260e06060830181905282018190526101206080830181905282015290517fe4920f4721fb99b00841330d40252fdd48ecd369a306c4f2e4d3691ee7a88ad6918190036101600190a15b5050505050565b600060015b600054811161136f57600081815260016020526040902054841415611367576001915061136f565b60010161133f565b81801561138e575060008181526001602052604090206006015460ff16155b156117365761139b611782565b600082815260016020818152604092839020835161010080820186528254825282850180548751600297821615909302600019011695909504601f81018590048502820185019096528581529094919385840193919290918301828280156114445780601f1061141957610100808354040283529160200191611444565b820191906000526020600020905b81548152906001019060200180831161142757829003601f168201915b5050509183525050600282810180546040805160206001841615610100026000190190931694909404601f810183900483028501830190915280845293810193908301828280156114d65780601f106114ab576101008083540402835291602001916114d6565b820191906000526020600020905b8154815290600101906020018083116114b957829003601f168201915b505050918352505060038201805460408051602060026001851615610100026000190190941693909304601f810184900484028201840190925281815293820193929183018282801561156a5780601f1061153f5761010080835404028352916020019161156a565b820191906000526020600020905b81548152906001019060200180831161154d57829003601f168201915b5050509183525050600482015460208083019190915260058301805460408051601f600260001961010060018716150201909416939093049283018590048502810185018252828152940193928301828280156116085780601f106115dd57610100808354040283529160200191611608565b820191906000526020600020905b8154815290600101906020018083116115eb57829003601f168201915b5050509183525050600682015460ff161515602080830191909152600790920154604091820152600160c0840181905260e08401889052600086815281845291909120835181558383015180519495508594919361166b938501929101906117ca565b50604082015180516116879160028401916020909101906117ca565b50606082015180516116a39160038401916020909101906117ca565b506080820151600482015560a082015180516116c99160058401916020909101906117ca565b5060c082015160068201805460ff191691151591909117905560e09091015160079091015560408051600181526020810187905280820186905290517fc4f1bc5f0f1f4f7da4af0e2ff07a3bd50dcdc997b45a572b54a0f58c98e563a8916060908290030190a150610c8f565b604080516000808252602082018190528183015290517fc4f1bc5f0f1f4f7da4af0e2ff07a3bd50dcdc997b45a572b54a0f58c98e563a89181900360600190a150505050565b60005481565b61010060405190810160405280600081526020016060815260200160608152602001606081526020016000815260200160608152602001600015158152602001600081525090565b828054600181600116156101000203166002900490600052602060002090601f016020900481019282601f1061180b57805160ff1916838001178555611838565b82800160010185558215611838579182015b8281111561183857825182559160200191906001019061181d565b50611844929150611848565b5090565b61186291905b80821115611844576000815560010161184e565b9056fea165627a7a72305820fa35c49f18e9516e93689d1597ef8512adb99776f9defd7ff6dd932054b97a190029e4920f4721fb99b00841330d40252fdd48ecd369a306c4f2e4d3691ee7a88ad6",
  "source": "pragma solidity ^0.5.0;\r\n\r\ncontract VaccineData {\r\n    uint public vaccineCount = 0;\r\n\r\n    struct Vaccine {\r\n        uint id;\r\n        string vaccineName;\r\n        string distributorName;\r\n        string transporter;\r\n        int temp;\r\n        string loc;\r\n        bool consumed;\r\n        uint consumedBy;\r\n    }\r\n\r\n    constructor() public {\r\n        AddVaccine(0, 'genesis', 'N/A', 'N/A');\r\n        AddVaccine(1, 'VacSafe', 'Sun Pharmaceutical', 'VacSafeTransporter');\r\n        AddVaccine(2, 'NoVirus', 'Bharat Biotech', 'NoVirusTransporter');\r\n        AddVaccine(3, 'CoviShield', 'Serum Institute', 'CoviShieldTransporter');\r\n        AddVaccine(4, 'GoCorona', 'Zydus Cadila', 'GoCoronaTransporter');\r\n        AddVaccine(5, 'CoronaGo', 'Panacea Biotec', 'CoronaGoTransporter');\r\n        AddVaccine(6, 'Covaxin', 'Indian Immunologicals', 'CovaxinTransporter');\r\n        AddVaccine(7, 'VaxCov', 'Mynvax', 'VaxCovTransporter');\r\n        AddVaccine(8, 'NoCorona', 'Biological E', 'NoCoronaTransporter');\r\n    }\r\n\r\n    mapping(uint => Vaccine) public vaccines;\r\n\r\n    event IotDataUpdated(\r\n        uint success,\r\n        uint id,\r\n        int temp,\r\n        string loc\r\n    );\r\n\r\n    function UpdateIotData(uint _id, int _temp, string memory _loc) public {\r\n        bool present = false;\r\n        for(uint i = 1;i<=vaccineCount;i++) {\r\n            if(_id == vaccines[i].id) {\r\n                present = true;\r\n                break;\r\n            }\r\n        }\r\n\r\n        if(present) {\r\n            Vaccine memory _vaccine = vaccines[_id];\r\n            _vaccine.temp = _temp;\r\n            _vaccine.loc = _loc;\r\n            vaccines[_id] = _vaccine;\r\n            emit IotDataUpdated(1, _id, _temp, _loc);\r\n        }\r\n        else\r\n            emit IotDataUpdated(0, 0, 0, '');\r\n    }\r\n\r\n    event VaccineAdded(\r\n        uint success,\r\n        uint id,\r\n        string vaccineName,\r\n        string distributorName,\r\n        string transporter\r\n    );\r\n\r\n    function AddVaccine(uint _id, string memory _vaccineName, string memory _distributorName, string memory _transporter) public {\r\n        bool proceed = true;\r\n        for(uint i = 0; i <= vaccineCount; i++) {\r\n            if(_id == vaccines[i].id) {\r\n                proceed = false;\r\n                break;\r\n            }\r\n        }\r\n        \r\n        if(proceed) {\r\n            vaccineCount ++;\r\n            vaccines[vaccineCount] = Vaccine(_id, _vaccineName, _distributorName, _transporter, 100, 'N/A', false, 0);\r\n            emit VaccineAdded(1, _id, _vaccineName, _distributorName, _transporter);\r\n        }\r\n        else\r\n            emit VaccineAdded(0, 0, '', '', '');\r\n    }\r\n\r\n    event VaccineConsumed(\r\n        uint success,\r\n        uint consumedVaccine,\r\n        uint consumedBy\r\n    );\r\n\r\n    function ConsumeVaccine(uint _id, uint _aId) public {\r\n        bool present = false;\r\n        uint i = 1;\r\n\r\n        for(i = 1;i<=vaccineCount;i++) {\r\n            if(_id == vaccines[i].id) {\r\n                present = true;\r\n                break;\r\n            }\r\n        }\r\n\r\n        if(present && !vaccines[i].consumed) {\r\n            Vaccine memory _vaccine = vaccines[i];\r\n            _vaccine.consumed = true;\r\n            _vaccine.consumedBy = _aId;\r\n            vaccines[i] = _vaccine;\r\n            emit VaccineConsumed(1, _id, _aId);\r\n        }\r\n        else\r\n            emit VaccineConsumed(0, 0, 0);\r\n    }\r\n\r\n    event ThrowVaccineData(\r\n        uint success,\r\n        uint id,\r\n        string vaccineName,\r\n        string distributorName,\r\n        string transporter,\r\n        int temp,\r\n        string loc,\r\n        bool consumed,\r\n        uint consumedBy\r\n    );\r\n\r\n    function GetVaccineData(uint _id) public {\r\n        bool present = false;\r\n        uint i = 1;\r\n\r\n        for(i = 1;i<=vaccineCount;i++) {\r\n            if(_id == vaccines[i].id) {\r\n                present = true;\r\n                break;\r\n            }\r\n        }\r\n\r\n        if(present)\r\n            emit ThrowVaccineData(1, vaccines[i].id, vaccines[i].vaccineName, vaccines[i].distributorName, vaccines[i].transporter, vaccines[i].temp, vaccines[i].loc, vaccines[i].consumed, vaccines[i].consumedBy);\r\n        else\r\n            emit ThrowVaccineData(0, 0, '', '', '', 0, '', false, 0);\r\n    }\r\n\r\n}",
  "sourcePath": "C:/Users/kshit/Desktop/Vaccine-monitoring-system/contracts/VaccineData.sol",
  "compiler": {
    "name": "solc",
    "version": "0.5.0+commit.1d4f565a.Emscripten.clang"
  },
  "schemaVersion": "3.0.1",
  "updatedAt": "2021-01-07T19:59:35.335Z",
  "devdoc": {
    "methods": {}
  },
  "userdoc": {
    "methods": {}
  }
}