{
  "contractName": "VaccineData",
  "abi": [
    {
      "constant": true,
      "inputs": [
        {
          "name": "",
          "type": "uint256"
        }
      ],
      "name": "vaccines",
      "outputs": [
        {
          "name": "id",
          "type": "uint256"
        },
        {
          "name": "vaccineName",
          "type": "string"
        },
        {
          "name": "distributorName",
          "type": "string"
        },
        {
          "name": "transporter",
          "type": "string"
        },
        {
          "name": "temp",
          "type": "int256"
        },
        {
          "name": "loc",
          "type": "string"
        },
        {
          "name": "consumed",
          "type": "bool"
        },
        {
          "name": "consumedBy",
          "type": "uint256"
        },
        {
          "name": "password",
          "type": "uint256"
        }
      ],
      "payable": false,
      "stateMutability": "view",
      "type": "function",
      "signature": "0x300e88bd"
    },
    {
      "constant": true,
      "inputs": [],
      "name": "vaccineCount",
      "outputs": [
        {
          "name": "",
          "type": "uint256"
        }
      ],
      "payable": false,
      "stateMutability": "view",
      "type": "function",
      "signature": "0xdcb7b1b7"
    },
    {
      "inputs": [],
      "payable": false,
      "stateMutability": "nonpayable",
      "type": "constructor",
      "signature": "constructor"
    },
    {
      "anonymous": false,
      "inputs": [
        {
          "indexed": false,
          "name": "success",
          "type": "uint256"
        },
        {
          "indexed": false,
          "name": "id",
          "type": "uint256"
        },
        {
          "indexed": false,
          "name": "temp",
          "type": "int256"
        },
        {
          "indexed": false,
          "name": "loc",
          "type": "string"
        }
      ],
      "name": "IotDataUpdated",
      "type": "event",
      "signature": "0x674974a81cc61803bfee8c89537605ad4bc008f4538ad8ee4ef28af7063f8637"
    },
    {
      "anonymous": false,
      "inputs": [
        {
          "indexed": false,
          "name": "success",
          "type": "uint256"
        },
        {
          "indexed": false,
          "name": "id",
          "type": "uint256"
        },
        {
          "indexed": false,
          "name": "vaccineName",
          "type": "string"
        },
        {
          "indexed": false,
          "name": "distributorName",
          "type": "string"
        },
        {
          "indexed": false,
          "name": "transporter",
          "type": "string"
        }
      ],
      "name": "VaccineAdded",
      "type": "event",
      "signature": "0xe4920f4721fb99b00841330d40252fdd48ecd369a306c4f2e4d3691ee7a88ad6"
    },
    {
      "anonymous": false,
      "inputs": [
        {
          "indexed": false,
          "name": "success",
          "type": "uint256"
        },
        {
          "indexed": false,
          "name": "consumedVaccine",
          "type": "uint256"
        },
        {
          "indexed": false,
          "name": "consumedBy",
          "type": "uint256"
        }
      ],
      "name": "VaccineConsumed",
      "type": "event",
      "signature": "0xc4f1bc5f0f1f4f7da4af0e2ff07a3bd50dcdc997b45a572b54a0f58c98e563a8"
    },
    {
      "anonymous": false,
      "inputs": [
        {
          "indexed": false,
          "name": "success",
          "type": "uint256"
        },
        {
          "indexed": false,
          "name": "id",
          "type": "uint256"
        },
        {
          "indexed": false,
          "name": "vaccineName",
          "type": "string"
        },
        {
          "indexed": false,
          "name": "distributorName",
          "type": "string"
        },
        {
          "indexed": false,
          "name": "transporter",
          "type": "string"
        },
        {
          "indexed": false,
          "name": "temp",
          "type": "int256"
        },
        {
          "indexed": false,
          "name": "loc",
          "type": "string"
        },
        {
          "indexed": false,
          "name": "consumed",
          "type": "bool"
        },
        {
          "indexed": false,
          "name": "consumedBy",
          "type": "uint256"
        }
      ],
      "name": "ThrowVaccineData",
      "type": "event",
      "signature": "0x48dd4ff22aed3466c8b231b6d32a13b0cf490339bb8878bad25812658535af32"
    },
    {
      "constant": false,
      "inputs": [
        {
          "name": "_id",
          "type": "uint256"
        },
        {
          "name": "_temp",
          "type": "int256"
        },
        {
          "name": "_loc",
          "type": "string"
        },
        {
          "name": "_password",
          "type": "uint256"
        }
      ],
      "name": "UpdateIotData",
      "outputs": [],
      "payable": false,
      "stateMutability": "nonpayable",
      "type": "function",
      "signature": "0xbb2c11b5"
    },
    {
      "constant": false,
      "inputs": [
        {
          "name": "_id",
          "type": "uint256"
        },
        {
          "name": "_vaccineName",
          "type": "string"
        },
        {
          "name": "_distributorName",
          "type": "string"
        },
        {
          "name": "_transporter",
          "type": "string"
        },
        {
          "name": "_password",
          "type": "uint256"
        }
      ],
      "name": "AddVaccine",
      "outputs": [],
      "payable": false,
      "stateMutability": "nonpayable",
      "type": "function",
      "signature": "0x0b2ec54d"
    },
    {
      "constant": false,
      "inputs": [
        {
          "name": "_id",
          "type": "uint256"
        },
        {
          "name": "_aId",
          "type": "uint256"
        },
        {
          "name": "_password",
          "type": "uint256"
        }
      ],
      "name": "ConsumeVaccine",
      "outputs": [],
      "payable": false,
      "stateMutability": "nonpayable",
      "type": "function",
      "signature": "0xc19d9597"
    },
    {
      "constant": false,
      "inputs": [
        {
          "name": "_id",
          "type": "uint256"
        }
      ],
      "name": "GetVaccineData",
      "outputs": [],
      "payable": false,
      "stateMutability": "nonpayable",
      "type": "function",
      "signature": "0xc9a9e26b"
    }
  ],
  "bytecode": "0x6080604052600080553480156200001557600080fd5b50620000d560006040805190810160405280600781526020017f67656e65736973000000000000000000000000000000000000000000000000008152506040805190810160405280600381526020017f4e2f4100000000000000000000000000000000000000000000000000000000008152506040805190810160405280600381526020017f4e2f4100000000000000000000000000000000000000000000000000000000008152506000620006d3640100000000026401000000009004565b6200019460016040805190810160405280600781526020017f56616353616665000000000000000000000000000000000000000000000000008152506040805190810160405280601281526020017f53756e20506861726d61636575746963616c00000000000000000000000000008152506040805190810160405280601281526020017f566163536166655472616e73706f7274657200000000000000000000000000008152506001620006d3640100000000026401000000009004565b6200025360026040805190810160405280600781526020017f4e6f5669727573000000000000000000000000000000000000000000000000008152506040805190810160405280600e81526020017f4268617261742042696f746563680000000000000000000000000000000000008152506040805190810160405280601281526020017f4e6f56697275735472616e73706f7274657200000000000000000000000000008152506001620006d3640100000000026401000000009004565b6200031260036040805190810160405280600a81526020017f436f7669536869656c64000000000000000000000000000000000000000000008152506040805190810160405280600f81526020017f536572756d20496e7374697475746500000000000000000000000000000000008152506040805190810160405280601581526020017f436f7669536869656c645472616e73706f7274657200000000000000000000008152506001620006d3640100000000026401000000009004565b620003d160046040805190810160405280600881526020017f476f436f726f6e610000000000000000000000000000000000000000000000008152506040805190810160405280600c81526020017f5a7964757320436164696c6100000000000000000000000000000000000000008152506040805190810160405280601381526020017f476f436f726f6e615472616e73706f72746572000000000000000000000000008152506001620006d3640100000000026401000000009004565b6200049060056040805190810160405280600881526020017f436f726f6e61476f0000000000000000000000000000000000000000000000008152506040805190810160405280600e81526020017f50616e616365612042696f7465630000000000000000000000000000000000008152506040805190810160405280601381526020017f436f726f6e61476f5472616e73706f72746572000000000000000000000000008152506001620006d3640100000000026401000000009004565b6200054f60066040805190810160405280600781526020017f436f766178696e000000000000000000000000000000000000000000000000008152506040805190810160405280601581526020017f496e6469616e20496d6d756e6f6c6f676963616c7300000000000000000000008152506040805190810160405280601281526020017f436f766178696e5472616e73706f7274657200000000000000000000000000008152506001620006d3640100000000026401000000009004565b6200060e60076040805190810160405280600681526020017f566178436f7600000000000000000000000000000000000000000000000000008152506040805190810160405280600681526020017f4d796e76617800000000000000000000000000000000000000000000000000008152506040805190810160405280601181526020017f566178436f765472616e73706f727465720000000000000000000000000000008152506001620006d3640100000000026401000000009004565b620006cd60086040805190810160405280600881526020017f4e6f436f726f6e610000000000000000000000000000000000000000000000008152506040805190810160405280600c81526020017f42696f6c6f676963616c204500000000000000000000000000000000000000008152506040805190810160405280601381526020017f4e6f436f726f6e615472616e73706f72746572000000000000000000000000008152506001620006d3640100000000026401000000009004565b62000ad2565b600160005b60005481116200070c576000818152600160205260409020548714156200070357600091506200070c565b600101620006d8565b508015620009d05760008054600190810180835560408051610120810182528a815260208082018b81528284018b9052606083018a90526064608084015283518085018552600381527f4e2f4100000000000000000000000000000000000000000000000000000000008184015260a084015260c0830187905260e0830187905261010083018990529386528481529190942084518155915180519293620007bd9390850192919091019062000a2d565b5060408201518051620007db91600284019160209091019062000a2d565b5060608201518051620007f991600384019160209091019062000a2d565b506080820151600482015560a082015180516200082191600584019160209091019062000a2d565b5060c08201518160060160006101000a81548160ff02191690831515021790555060e0820151816007015561010082015181600801559050506000805160206200241d83398151915260018787878760405180868152602001858152602001806020018060200180602001848103845287818151815260200191508051906020019080838360005b83811015620008c3578181015183820152602001620008a9565b50505050905090810190601f168015620008f15780820380516001836020036101000a031916815260200191505b50848103835286518152865160209182019188019080838360005b83811015620009265781810151838201526020016200090c565b50505050905090810190601f168015620009545780820380516001836020036101000a031916815260200191505b50848103825285518152855160209182019187019080838360005b83811015620009895781810151838201526020016200096f565b50505050905090810190601f168015620009b75780820380516001836020036101000a031916815260200191505b509850505050505050505060405180910390a162000a25565b6040805160008082526020820181905260a0828401819052820181905260e06060830181905282018190526101206080830181905282015290516000805160206200241d833981519152918190036101600190a15b505050505050565b828054600181600116156101000203166002900490600052602060002090601f016020900481019282601f1062000a7057805160ff191683800117855562000aa0565b8280016001018555821562000aa0579182015b8281111562000aa057825182559160200191906001019062000a83565b5062000aae92915062000ab2565b5090565b62000acf91905b8082111562000aae576000815560010162000ab9565b90565b61193b8062000ae26000396000f3fe6080604052600436106100775763ffffffff7c01000000000000000000000000000000000000000000000000000000006000350416630b2ec54d811461007c578063300e88bd14610248578063bb2c11b514610443578063c19d959714610504578063c9a9e26b1461053a578063dcb7b1b714610564575b600080fd5b34801561008857600080fd5b50610246600480360360a081101561009f57600080fd5b813591908101906040810160208201356401000000008111156100c157600080fd5b8201836020820111156100d357600080fd5b803590602001918460018302840111640100000000831117156100f557600080fd5b91908080601f016020809104026020016040519081016040528093929190818152602001838380828437600092019190915250929594936020810193503591505064010000000081111561014857600080fd5b82018360208201111561015a57600080fd5b8035906020019184600183028401116401000000008311171561017c57600080fd5b91908080601f01602080910402602001604051908101604052809392919081815260200183838082843760009201919091525092959493602081019350359150506401000000008111156101cf57600080fd5b8201836020820111156101e157600080fd5b8035906020019184600183028401116401000000008311171561020357600080fd5b91908080601f016020809104026020016040519081016040528093929190818152602001838380828437600092019190915250929550509135925061058b915050565b005b34801561025457600080fd5b506102726004803603602081101561026b57600080fd5b50356108f0565b604051808a8152602001806020018060200180602001898152602001806020018815151515815260200187815260200186815260200185810385528d818151815260200191508051906020019080838360005b838110156102dd5781810151838201526020016102c5565b50505050905090810190601f16801561030a5780820380516001836020036101000a031916815260200191505b5085810384528c5181528c516020918201918e019080838360005b8381101561033d578181015183820152602001610325565b50505050905090810190601f16801561036a5780820380516001836020036101000a031916815260200191505b5085810383528b5181528b516020918201918d019080838360005b8381101561039d578181015183820152602001610385565b50505050905090810190601f1680156103ca5780820380516001836020036101000a031916815260200191505b5085810382528951815289516020918201918b019080838360005b838110156103fd5781810151838201526020016103e5565b50505050905090810190601f16801561042a5780820380516001836020036101000a031916815260200191505b509d505050505050505050505050505060405180910390f35b34801561044f57600080fd5b506102466004803603608081101561046657600080fd5b81359160208101359181019060608101604082013564010000000081111561048d57600080fd5b82018360208201111561049f57600080fd5b803590602001918460018302840111640100000000831117156104c157600080fd5b91908080601f0160208091040260200160405190810160405280939291908181526020018383808284376000920191909152509295505091359250610b67915050565b34801561051057600080fd5b506102466004803603606081101561052757600080fd5b508035906020810135906040013561104e565b34801561054657600080fd5b506102466004803603602081101561055d57600080fd5b50356114cb565b34801561057057600080fd5b5061057961181f565b60408051918252519081900360200190f35b600160005b60005481116105c0576000818152600160205260409020548714156105b857600091506105c0565b600101610590565b5080156108825760008054600190810180835560408051610120810182528a815260208082018b81528284018b9052606083018a90526064608084015283518085018552600381527f4e2f4100000000000000000000000000000000000000000000000000000000008184015260a084015260c0830187905260e083018790526101008301899052938652848152919094208451815591518051929361066e93908501929190910190611825565b506040820151805161068a916002840191602090910190611825565b50606082015180516106a6916003840191602090910190611825565b506080820151600482015560a082015180516106cc916005840191602090910190611825565b5060c08201518160060160006101000a81548160ff02191690831515021790555060e0820151816007015561010082015181600801559050507fe4920f4721fb99b00841330d40252fdd48ecd369a306c4f2e4d3691ee7a88ad660018787878760405180868152602001858152602001806020018060200180602001848103845287818151815260200191508051906020019080838360005b8381101561077d578181015183820152602001610765565b50505050905090810190601f1680156107aa5780820380516001836020036101000a031916815260200191505b50848103835286518152865160209182019188019080838360005b838110156107dd5781810151838201526020016107c5565b50505050905090810190601f16801561080a5780820380516001836020036101000a031916815260200191505b50848103825285518152855160209182019187019080838360005b8381101561083d578181015183820152602001610825565b50505050905090810190601f16801561086a5780820380516001836020036101000a031916815260200191505b509850505050505050505060405180910390a16108e8565b6040805160008082526020820181905260a0828401819052820181905260e06060830181905282018190526101206080830181905282015290517fe4920f4721fb99b00841330d40252fdd48ecd369a306c4f2e4d3691ee7a88ad6918190036101600190a15b505050505050565b600160208181526000928352604092839020805481840180548651600296821615610100026000190190911695909504601f8101859004850286018501909652858552909491939290919083018282801561098c5780601f106109615761010080835404028352916020019161098c565b820191906000526020600020905b81548152906001019060200180831161096f57829003601f168201915b50505060028085018054604080516020601f6000196101006001871615020190941695909504928301859004850281018501909152818152959695945090925090830182828015610a1e5780601f106109f357610100808354040283529160200191610a1e565b820191906000526020600020905b815481529060010190602001808311610a0157829003601f168201915b5050505060038301805460408051602060026001851615610100026000190190941693909304601f8101849004840282018401909252818152949594935090830182828015610aae5780601f10610a8357610100808354040283529160200191610aae565b820191906000526020600020905b815481529060010190602001808311610a9157829003601f168201915b50505050600483015460058401805460408051602060026001851615610100026000190190941693909304601f81018490048402820184019092528181529596939593945090830182828015610b455780601f10610b1a57610100808354040283529160200191610b45565b820191906000526020600020905b815481529060010190602001808311610b2857829003601f168201915b5050505060068301546007840154600890940154929360ff9091169290915089565b600060015b6000548111610b9c57600081815260016020526040902054861415610b945760019150610b9c565b600101610b6c565b50808015610bba575060008581526001602052604090206008015482145b15610ff857610bc76118a3565b6000868152600160208181526040928390208351610120810185528154815281840180548651600296821615610100026000190190911695909504601f81018590048502860185019096528585529094919385840193909290830182828015610c715780601f10610c4657610100808354040283529160200191610c71565b820191906000526020600020905b815481529060010190602001808311610c5457829003601f168201915b5050509183525050600282810180546040805160206001841615610100026000190190931694909404601f81018390048302850183019091528084529381019390830182828015610d035780601f10610cd857610100808354040283529160200191610d03565b820191906000526020600020905b815481529060010190602001808311610ce657829003601f168201915b505050918352505060038201805460408051602060026001851615610100026000190190941693909304601f8101849004840282018401909252818152938201939291830182828015610d975780601f10610d6c57610100808354040283529160200191610d97565b820191906000526020600020905b815481529060010190602001808311610d7a57829003601f168201915b5050509183525050600482015460208083019190915260058301805460408051601f60026000196101006001871615020190941693909304928301859004850281018501825282815294019392830182828015610e355780601f10610e0a57610100808354040283529160200191610e35565b820191906000526020600020905b815481529060010190602001808311610e1857829003601f168201915b5050509183525050600682015460ff16151560208083019190915260078301546040808401919091526008909301546060909201919091526080830188905260a08301879052600089815260018083529290208351815583820151805194955085949193610ea99390850192910190611825565b5060408201518051610ec5916002840191602090910190611825565b5060608201518051610ee1916003840191602090910190611825565b506080820151600482015560a08201518051610f07916005840191602090910190611825565b5060c08201518160060160006101000a81548160ff02191690831515021790555060e0820151816007015561010082015181600801559050507f674974a81cc61803bfee8c89537605ad4bc008f4538ad8ee4ef28af7063f863760018787876040518085815260200184815260200183815260200180602001828103825283818151815260200191508051906020019080838360005b83811015610fb5578181015183820152602001610f9d565b50505050905090810190601f168015610fe25780820380516001836020036101000a031916815260200191505b509550505050505060405180910390a150611047565b6040805160008082526020820181905281830181905260806060830181905282015290517f674974a81cc61803bfee8c89537605ad4bc008f4538ad8ee4ef28af7063f86379181900360c00190a15b5050505050565b600060015b60005481116110835760008181526001602052604090205485141561107b5760019150611083565b600101611053565b8180156110a2575060008181526001602052604090206006015460ff16155b80156110be575060008181526001602052604090206008015483145b15611484576110cb6118a3565b6000828152600160208181526040928390208351610120810185528154815281840180548651600296821615610100026000190190911695909504601f810185900485028601850190965285855290949193858401939092908301828280156111755780601f1061114a57610100808354040283529160200191611175565b820191906000526020600020905b81548152906001019060200180831161115857829003601f168201915b5050509183525050600282810180546040805160206001841615610100026000190190931694909404601f810183900483028501830190915280845293810193908301828280156112075780601f106111dc57610100808354040283529160200191611207565b820191906000526020600020905b8154815290600101906020018083116111ea57829003601f168201915b505050918352505060038201805460408051602060026001851615610100026000190190941693909304601f810184900484028201840190925281815293820193929183018282801561129b5780601f106112705761010080835404028352916020019161129b565b820191906000526020600020905b81548152906001019060200180831161127e57829003601f168201915b5050509183525050600482015460208083019190915260058301805460408051601f600260001961010060018716150201909416939093049283018590048502810185018252828152940193928301828280156113395780601f1061130e57610100808354040283529160200191611339565b820191906000526020600020905b81548152906001019060200180831161131c57829003601f168201915b5050509183525050600682015460ff1615156020808301919091526007830154604080840191909152600890930154606090920191909152600160c0840181905260e0840189905260008681528183529290922083518155838201518051949550859491936113ae9390850192910190611825565b50604082015180516113ca916002840191602090910190611825565b50606082015180516113e6916003840191602090910190611825565b506080820151600482015560a0820151805161140c916005840191602090910190611825565b5060c082015160068201805460ff191691151591909117905560e082015160078201556101009091015160089091015560408051600181526020810188905280820187905290517fc4f1bc5f0f1f4f7da4af0e2ff07a3bd50dcdc997b45a572b54a0f58c98e563a8916060908290030190a150611047565b604080516000808252602082018190528183015290517fc4f1bc5f0f1f4f7da4af0e2ff07a3bd50dcdc997b45a572b54a0f58c98e563a89181900360600190a15050505050565b600060015b6000548111611500576000818152600160205260409020548314156114f85760019150611500565b6001016114d0565b811561178d576000818152600160208181526040928390208054600482015460068301546007840154875187815295860184905260a0860183905260ff90911680151560e087015261010080870183905261012098870189815286890180546002818c161590940260001901168390049a89018b90527f48dd4ff22aed3466c8b231b6d32a13b0cf490339bb8878bad25812658535af329a96989097928301966003840196956005909401949392906060830190608084019060c08501906101408601908d9080156116135780601f106115e857610100808354040283529160200191611613565b820191906000526020600020905b8154815290600101906020018083116115f657829003601f168201915b505085810384528b54600260001961010060018416150201909116048082526020909101908c9080156116875780601f1061165c57610100808354040283529160200191611687565b820191906000526020600020905b81548152906001019060200180831161166a57829003601f168201915b505085810383528a54600260001961010060018416150201909116048082526020909101908b9080156116fb5780601f106116d0576101008083540402835291602001916116fb565b820191906000526020600020905b8154815290600101906020018083116116de57829003601f168201915b505085810382528854600260001961010060018416150201909116048082526020909101908990801561176f5780601f106117445761010080835404028352916020019161176f565b820191906000526020600020905b81548152906001019060200180831161175257829003601f168201915b50509d505050505050505050505050505060405180910390a161181a565b6040805160008082526020820181905260a0820181905260e08201819052610100820181905261012082840181905282018190526101606060830181905282018190526101a06080830181905282018190526101e060c0830181905282015290517f48dd4ff22aed3466c8b231b6d32a13b0cf490339bb8878bad25812658535af32918190036102200190a15b505050565b60005481565b828054600181600116156101000203166002900490600052602060002090601f016020900481019282601f1061186657805160ff1916838001178555611893565b82800160010185558215611893579182015b82811115611893578251825591602001919060010190611878565b5061189f9291506118f2565b5090565b6101206040519081016040528060008152602001606081526020016060815260200160608152602001600081526020016060815260200160001515815260200160008152602001600081525090565b61190c91905b8082111561189f57600081556001016118f8565b9056fea165627a7a7230582010c5aa29f7003e6ec4621cc5fc384d099f3d4303bc002c4348016c0ae7c4679a0029e4920f4721fb99b00841330d40252fdd48ecd369a306c4f2e4d3691ee7a88ad6",
  "source": "pragma solidity ^0.5.0;\r\n\r\ncontract VaccineData {\r\n    uint public vaccineCount = 0;\r\n\r\n    struct Vaccine {\r\n        uint id;\r\n        string vaccineName;\r\n        string distributorName;\r\n        string transporter;\r\n        int temp;\r\n        string loc;\r\n        bool consumed;\r\n        uint consumedBy;\r\n        uint password;\r\n    }\r\n\r\n    constructor() public {\r\n        AddVaccine(0, 'genesis', 'N/A', 'N/A', 0);\r\n        AddVaccine(1, 'VacSafe', 'Sun Pharmaceutical', 'VacSafeTransporter', 1);\r\n        AddVaccine(2, 'NoVirus', 'Bharat Biotech', 'NoVirusTransporter', 1);\r\n        AddVaccine(3, 'CoviShield', 'Serum Institute', 'CoviShieldTransporter', 1);\r\n        AddVaccine(4, 'GoCorona', 'Zydus Cadila', 'GoCoronaTransporter', 1);\r\n        AddVaccine(5, 'CoronaGo', 'Panacea Biotec', 'CoronaGoTransporter', 1);\r\n        AddVaccine(6, 'Covaxin', 'Indian Immunologicals', 'CovaxinTransporter', 1);\r\n        AddVaccine(7, 'VaxCov', 'Mynvax', 'VaxCovTransporter', 1);\r\n        AddVaccine(8, 'NoCorona', 'Biological E', 'NoCoronaTransporter', 1);\r\n    }\r\n\r\n    mapping(uint => Vaccine) public vaccines;\r\n\r\n    event IotDataUpdated(\r\n        uint success,\r\n        uint id,\r\n        int temp,\r\n        string loc\r\n    );\r\n\r\n    function UpdateIotData(uint _id, int _temp, string memory _loc, uint _password) public {\r\n        bool present = false;\r\n        for(uint i = 1;i<=vaccineCount;i++) {\r\n            if(_id == vaccines[i].id) {\r\n                present = true;\r\n                break;\r\n            }\r\n        }\r\n\r\n        if(present && _password==vaccines[_id].password) {\r\n            Vaccine memory _vaccine = vaccines[_id];\r\n            _vaccine.temp = _temp;\r\n            _vaccine.loc = _loc;\r\n            vaccines[_id] = _vaccine;\r\n            emit IotDataUpdated(1, _id, _temp, _loc);\r\n        }\r\n        else\r\n            emit IotDataUpdated(0, 0, 0, '');\r\n    }\r\n\r\n    event VaccineAdded(\r\n        uint success,\r\n        uint id,\r\n        string vaccineName,\r\n        string distributorName,\r\n        string transporter\r\n    );\r\n\r\n    function AddVaccine(uint _id, string memory _vaccineName, string memory _distributorName, string memory _transporter, uint _password) public {\r\n        bool proceed = true;\r\n        for(uint i = 0; i <= vaccineCount; i++) {\r\n            if(_id == vaccines[i].id) {\r\n                proceed = false;\r\n                break;\r\n            }\r\n        }\r\n        \r\n        if(proceed) {\r\n            vaccineCount ++;\r\n            vaccines[vaccineCount] = Vaccine(_id, _vaccineName, _distributorName, _transporter, 100, 'N/A', false, 0, _password);\r\n            emit VaccineAdded(1, _id, _vaccineName, _distributorName, _transporter);\r\n        }\r\n        else\r\n            emit VaccineAdded(0, 0, '', '', '');\r\n    }\r\n\r\n    event VaccineConsumed(\r\n        uint success,\r\n        uint consumedVaccine,\r\n        uint consumedBy\r\n    );\r\n\r\n    function ConsumeVaccine(uint _id, uint _aId, uint _password) public {\r\n        bool present = false;\r\n        uint i = 1;\r\n\r\n        for(i = 1;i<=vaccineCount;i++) {\r\n            if(_id == vaccines[i].id) {\r\n                present = true;\r\n                break;\r\n            }\r\n        }\r\n\r\n        if(present && !vaccines[i].consumed && _password==vaccines[i].password) {\r\n            Vaccine memory _vaccine = vaccines[i];\r\n            _vaccine.consumed = true;\r\n            _vaccine.consumedBy = _aId;\r\n            vaccines[i] = _vaccine;\r\n            emit VaccineConsumed(1, _id, _aId);\r\n        }\r\n        else\r\n            emit VaccineConsumed(0, 0, 0);\r\n    }\r\n\r\n    event ThrowVaccineData(\r\n        uint success,\r\n        uint id,\r\n        string vaccineName,\r\n        string distributorName,\r\n        string transporter,\r\n        int temp,\r\n        string loc,\r\n        bool consumed,\r\n        uint consumedBy\r\n    );\r\n\r\n    function GetVaccineData(uint _id) public {\r\n        bool present = false;\r\n        uint i = 1;\r\n\r\n        for(i = 1;i<=vaccineCount;i++) {\r\n            if(_id == vaccines[i].id) {\r\n                present = true;\r\n                break;\r\n            }\r\n        }\r\n\r\n        if(present)\r\n            emit ThrowVaccineData(1, vaccines[i].id, vaccines[i].vaccineName, vaccines[i].distributorName, vaccines[i].transporter, vaccines[i].temp, vaccines[i].loc, vaccines[i].consumed, vaccines[i].consumedBy);\r\n        else\r\n            emit ThrowVaccineData(0, 0, '', '', '', 0, '', false, 0);\r\n    }\r\n\r\n}",
  "sourcePath": "C:/Users/kshit/Desktop/Vaccine-monitoring-system/contracts/VaccineData.sol",
  "compiler": {
    "name": "solc",
    "version": "0.5.0+commit.1d4f565a.Emscripten.clang"
  },
  "schemaVersion": "3.0.1",
  "updatedAt": "2021-01-20T09:50:14.692Z",
  "devdoc": {
    "methods": {}
  },
  "userdoc": {
    "methods": {}
  }
}